NO000000001000016000476AF196343  20110823010000108917501048693009447100007560000000000005000001FARMABODEGA                   000010891VENDA ELASTICA 5 CM X 5 MTS             VENDA 5 CM X 5 MTS                      0000000
NO000000001000016000476AF196343  20110823010000108917501048695607448100007560000000000005000001FARMABODEGA                   000010891VENDA ELASTICA 10 CM X 5 MTS            VENDA 10 CM X 5 MTS                     0000000
NO000000001000016000476AF196343  20110823010000108917501048695904449100007560000000000005000001FARMABODEGA                   000010891VENDA ELASTICA 15 CM X 5 MTS            VENDA 15 CM X 5 MTS                     0000000
NO000000001000016000476AF196343  20110823010000108917501048696802450100007560000000000005000001FARMABODEGA                   000010891VENDA ELASTICA 30 CM X 5 MTS            VENDA 30 CM X 5 MTS                     0000000
NO000000001000016000476AF196343  20110823010000108917501048613809451100002250000000000005000001FARMABODEGA                   000010891GASA ESTERILIZADA 7.5X5CM 10 SBS        GASA ESTERIL 7.5 X 5 CM                 0000000
NO000000001000016000476AF196343  20110823010000108917501048780488503200002280000000000005000001FARMABODEGA                   000010891MULTIAPLICADORES DE ALGODON C/100       MULTIAPLICADORES PROTEC C/100           0000000
NO000000001000016000476AF196343  20110823010000108917501048781874601200006000000000000005000001FARMABODEGA                   000010891CUBRE BOCAS DESECHABLES C/10 PIEZAS     CUBRE BOCAS PROTEC C/10 PIEZAS          0000000
NO00000000300001600078815        20110823130000108277502005860380018100001500000000000001000001FARMABODEGA                   000010827ACIDO NALIDIXICO Y FENAZOPIRIDINA 20 TABFARDIXON 500 MG/50 MG 20 TABS           0000000
NO00000000300001600078815        20110823130000108270656599040080057100001120000000000001000001FARMABODEGA                   000010827ASTEMIZOL 10 MG 10 TABS                 DIMENITOL 10 MG 10 TABS                 0000000
NO00000000300001600078815        20110823130000108270656599040165107200001120000000000001000001FARMABODEGA                   000010827CISAPRIDA 10 MG 30 TABS                 LORNAKIN-10 10 MG 30 TABS               0000000
NO00000000300001600078815        20110823130000108270958854541258108300003000000000000001000001FARMABODEGA                   000010827CLARITROMICINA 500 MG 10 TABS (VICTORY) MOXITRAL 500 MG 10 TABS                 0000000
NO00000000300001600078815        20110823130000108270656599040264169100001120000000000001000001FARMABODEGA                   000010827DIFENHIDRAMINA 25 MG 20 CAPS  (VICTORY) VICNITE 25 MG 20 CAPS                   0000000
NO00000000300001600078815        20110823130000108270656599040493203100006000000000000001000001FARMABODEGA                   000010827FLUCONAZOL 150 MG 1 CAPS                ALFUMET 150 MG 1 CAPS                   0000000
NO00000000300001600078815        20110823130000108270656599040783254200001500000000000001000001FARMABODEGA                   000010827LORATADINA 10 MG 20 TABS                CILORA 10 MG 20 TABS                    0000000
NO00000000300001600078815        20110823130000108277502005861028316100002250000000000001000001FARMABODEGA                   000010827PANCREATINA EXTRACTO BILIS 24 GRAGS     DIXIFLEN 24 GRAG ( FARCORAL )           0000000
NO00000000300001600078815        20110823130000108270072528826608342100006000000000000001000001FARMABODEGA                   000010827SALBUTAMOL GI 100 MCG SUSP AEROSOL 200 DGI SALBUTAMOL 100 MCG SUSP AEROSOL 200 D0000000
NO00000000300001600078815        20110823130000108270656599041216515100006000000000000001000001FARMABODEGA                   000010827TRAMADOL 50 MG 10 TABS                  CITRA 50 MG 10 TABS                     0000000
NO00000000300001600078815        20110823130000108270656599040967580100001500000000000001000001FARMABODEGA                   000010827PANTOPRAZOL 40 MG 10 TABS               CIPROTON 40 MG 10 TABS                  0000000
NO00000000300001600078815        20110823130000108270656599040608618100001500000000000001000001FARMABODEGA                   000010827HIDROCLOROTIAZIDA 25 MG 20 TABS         ACORTIZ 25 MG 20 TABS                   0000000
NO000000004000016000392IQ6276    20110823130000108897501571201757006100001120000000000001000001FARMABODEGA                   000010889ACICLOVIR CREMA 5 GR                    SERACIC CREMA 5GR                       0000000
NO000000004000016000392IQ6276    20110823130000108897501571200668022100001500000000000001000001FARMABODEGA                   000010889ALBENDAZOL SUSP 20 ML                   ALFAZOL SUSP 20ML                       0000000
NO000000004000016000392IQ6276    20110823130000108897501571200569028100001120000000000001000001FARMABODEGA                   000010889AMBROXOL  30 MG 20 TABS                 LOEXOM 30 MG 20 TABS                    0000000
NO000000004000016000392IQ6276    20110823130000108897501571201726031100001120000000000001000001FARMABODEGA                   000010889AMBROXOL CLEMBUTEROL 120 ML SOL INF     SERBOL-S JBE 120 ML SOL INF             0000000
NO000000004000016000392IQ6276    20110823130000108897501571200590036100003000000000000001000001FARMABODEGA                   000010889AMBROXOL SOL 120 ML                     LOEXOM SOL 120 ML                       0000000
NO000000004000016000392IQ6276    20110823130000108897501571200729043100001120000000000001000001FARMABODEGA                   000010889AMOXICILINA 250 MG SUSP 60 ML           LUMOX S 250 MG 60 ML                    0000000
NO000000004000016000392IQ6276    20110823130000108897501571202587045100001120000000000001000001FARMABODEGA                   000010889AMOXICILINA 500 MG 15 CAPS              LUMOX 500 MG 15 CAPS                    0000000
NO000000004000016000392IQ6276    20110823130000108897501571200125055100001500000000000001000001FARMABODEGA                   000010889AMPICILINA 250 MG SUSP 60 ML            IQFACILINA 250 MG 60 ML                 0000000
NO000000004000016000392IQ6276    20110823130000108897501571200965062100001500000000000001000001FARMABODEGA                   000010889BENCILPENICILINA 400 000 UI AMPS 2 ML   ROBENCAXIL 400 000 UI AMPS 2 ML         0000000
NO000000004000016000392IQ6276    20110823130000108897501571200972063100001500000000000001000001FARMABODEGA                   000010889BENCILPENICILINA 800 000 U AMP          ROBENCAXIL 800 000 U AMP                0000000
NO000000004000016000392IQ6276    20110823130000108897501571201511068100009000000000000001000001FARMABODEGA                   000010889BETAMETASONA CLOTRIMAZOL GENTAMICINA CRABETRIGEN CREMA 25 GR                    0000000
NO000000004000016000392IQ6276    20110823130000108897501571200859077100001500000000000001000001FARMABODEGA                   000010889BUTILHIOSCINA 10 MG 10 GRAGEAS          GRAFIN 10 MG 10 TABS                    0000000
NO000000004000016000392IQ6276    20110823130000108897501571200033084100001500000000000001000001FARMABODEGA                   000010889CAOLIN PECTINA 100 ML SUSP              QUIMEFURAN 100 ML SUSP                  0000000
NO000000004000016000392IQ6276    20110823130000108897501571201863085100003000000000000001000001FARMABODEGA                   000010889CAPTOPRIL 25 MG 30 TABS                 OSPIL 25 MG 30 TABS                     0000000
NO000000004000016000392IQ6276    20110823130000108897501571201887087100003000000000000001000001FARMABODEGA                   000010889CARBAMAZEPINA 200 MG 20 TABS            CINAZEL 200 MG 20 TABS                  0000000
NO000000004000016000392IQ6276    20110823130000108897501571200224105100006000000000000001000001FARMABODEGA                   000010889CIPROFLOXACINO 250 MG 8 TABS            CIQFADIN 250 MG 8 TABS                  0000000
NO000000004000016000392IQ6276    20110823130000108897501571201238106100006000000000000001000001FARMABODEGA                   000010889CIPROFLOXACINO 500 MG 12 TABS           CIQFADIN 500 MG 12 TABS                 0000000
NO000000004000016000392IQ6276    20110823130000108897501571201979107100001120000000000001000001FARMABODEGA                   000010889CISAPRIDA 10 MG 30 TABS                 PRIXIN 10 MG 30 TABS                    0000000
NO000000004000016000392IQ6276    20110823130000108897501571202211110100003000000000000001000001FARMABODEGA                   000010889CLINDAMICINA 300 MG 16 CAPS             NOCLIN 300 MG 16 CAPS                   0000000
NO000000004000016000392IQ6276    20110823130000108897501571200101118100007500000000000001000001FARMABODEGA                   000010889CLORFENAMINA COMPUESTA 500 MG 10 TABS   CLOTEN 500MG 10 TABS                    0000000
NO000000004000016000392IQ6276    20110823130000108897501571201719125100001500000000000001000001FARMABODEGA                   000010889CLOTRIMAZOL DERM TARRO 30 GRS           CLOCAN CRA 30 GR 1%                     0000000
NO000000004000016000392IQ6276    20110823130000108897501571200231154100001500000000000001000001FARMABODEGA                   000010889DEXTROMETORFANO JBE 120 ML              BALSEDRINA JBE 120 ML                   0000000
NO000000004000016000392IQ6276    20110823130000108897501571200064176100003000000000000001000001FARMABODEGA                   000010889DIYODO HOMATROPINA 250 MG 20 TABS       DIZEM 250 MG 20 TABS                    0000000
NO000000004000016000392IQ6276    20110823130000108897501571201160181100007500000000000001000001FARMABODEGA                   000010889ERGOCALCIFEROL SOL ORAL 1X3 ML          VIQMIGIL 1X3 ML                         0000000
NO000000004000016000392IQ6276    20110823130000108897501571200323209100001500000000000001000001FARMABODEGA                   000010889FUMARATO FERROSO 200 MG 50 TABS         FUMAVIT 200 MG 50 TABS                  0000000
NO000000004000016000392IQ6276    20110823130000108897501571201870211100001500000000000001000001FARMABODEGA                   000010889FUROSEMIDA 40 MG 20 TABS                KLIMYN 40 MG 20 TABS                    0000000
NO000000004000016000392IQ6276    20110823130000108897501571200521221100006000000000000001000001FARMABODEGA                   000010889GLIBENCLAMIDA 5 MG 50 TABS              DIGLEXOL 5 MG 50 TABS                   0000000
NO000000004000016000392IQ6276    20110823130000108897501571200682226100006000000000000001000001FARMABODEGA                   000010889IBUPROFENO 400 MG 10 TABS               CARONE 400MG 10 TABS                    0000000
NO000000004000016000392IQ6276    20110823130000108897501571201092231100001500000000000001000001FARMABODEGA                   000010889ITRACONAZOL 100 MG 15 TABS              IQCONA 100MG 15 TABS                    0000000
NO000000004000016000392IQ6276    20110823130000108897501571200347242100003000000000000001000001FARMABODEGA                   000010889KETOCONAZOL 200 MG 10 TABS              KONATURIL 200MG 10 TABS                 0000000
NO000000004000016000392IQ6276    20110823130000108897501571201504244100001500000000000001000001FARMABODEGA                   000010889KETOROLACO TROMETAMINA 30 MG 3 AMPS 1 MLDOKET 30 MG 3 AMP                       0000000
NO000000004000016000392IQ6276    20110823130000108897501571201467245100006000000000000001000001FARMABODEGA                   000010889KETOROLACO 10 MG 10 TABS                DOKET 10 MG 10 TABS                     0000000
NO000000004000016000392IQ6276    20110823130000108897501571202457249100003000000000000001000001FARMABODEGA                   000010889LANSOPRAZOL 15 MG 14 TABS               SUPRAXAL 15 MG 14 TABS                  0000000
NO000000004000016000392IQ6276    20110823130000108897501571201955254100001500000000000001000001FARMABODEGA                   000010889LORATADINA 10 MG 20 TABS                LOTINEX 10 MG 20 TABS                   0000000
NO000000004000016000392IQ6276    20110823130000108897501571200071256100003000000000000001000001FARMABODEGA                   000010889MEBENDAZOL 100 MG 6 TABS                EXTENY 100MG 6 TABS                     0000000
NO000000004000016000392IQ6276    20110823130000108897501571200583265100006000000000000001000001FARMABODEGA                   000010889METAMIZOL 500 MG 10 COMPR               INDIGON 500MG 10 COMPR                  0000000
NO000000004000016000392IQ6276    20110823130000108897501571201788266100006000000000000001000001FARMABODEGA                   000010889METFORMINA 850 MG 30 TABS               SIBET 850 MG 30 TABS                    0000000
NO000000004000016000392IQ6276    20110823130000108897501571200606268100005250000000000001000001FARMABODEGA                   000010889METOCLOPRAMIDA 10 MG 20 TABS            MIPRAMID 10 MG 20 TABS                  0000000
NO000000004000016000392IQ6276    20110823130000108897501571200675269100003000000000000001000001FARMABODEGA                   000010889METOPROLOL 100 MG 20 TABS               PROMICED 100 MG 20 TABS                 0000000
NO000000004000016000392IQ6276    20110823130000108897501571201139283100003000000000000001000001FARMABODEGA                   000010889MULTIVITAMINICO SUSP 120 ML INF         KIDS ENERTON 120 ML INF                 0000000
NO000000004000016000392IQ6276    20110823130000108897501571201603289100006000000000000001000001FARMABODEGA                   000010889NAPROXENO SODICO PARACETAMOL SUSP 100 MLARSENAL COMP SUSP 100 ML                0000000
NO000000004000016000392IQ6276    20110823130000108897501571201474291100003000000000000001000001FARMABODEGA                   000010889NAPROXENO SODICO 275 MG 20 TABS         ARSENAL 275MG 20 TABS                   0000000
NO000000004000016000392IQ6276    20110823130000108897501571201481292100005250000000000001000001FARMABODEGA                   000010889NAPROXENO SODICO 550 MG 12 TABS         ARSENAL 550MG 12 TABS                   0000000
NO000000004000016000392IQ6276    20110823130000108897501571200194293100003000000000000001000001FARMABODEGA                   000010889NAPROXENO 250 MG 30 TABS                IQFASOL 250 MG 30 TABS                  0000000
NO000000004000016000392IQ6276    20110823130000108897501571202402299100006000000000000001000001FARMABODEGA                   000010889NIMESULIDA 1G SUSP 60 ML                NILDEN 1G SUSP 60 ML                    0000000
NO000000004000016000392IQ6276    20110823130000108897501571201221309100001500000000000001000001FARMABODEGA                   000010889OMEPRAZOL 20 MG 14 CAPS                 OPRAMID 20 MG 14 CAPS                   0000000
NO000000004000016000392IQ6276    20110823130000108897501571201023310100006000000000000001000001FARMABODEGA                   000010889OMEPRAZOL 20 MG 7 CAPS                  OPRAMID 20 MG 7CAPS                     0000000
NO000000004000016000392IQ6276    20110823130000108897501571200019315100001500000000000001000001FARMABODEGA                   000010889OXOLAMINA CITRATO JBE 100 ML            ALEDRON JBE 100 ML                      0000000
NO000000004000016000392IQ6276    20110823130000108897501571200552320100007500000000000001000001FARMABODEGA                   000010889PARACETAMOL 500 MG 10 TABS              ICETAZOL 500 MG 10 TABS                 0000000
NO000000004000016000392IQ6276    20110823130000108897501571202518327100002250000000000001000001FARMABODEGA                   000010889PRAVASTATINA 10 MG 30 TABS              VALPRASTIN 10 MG 30 TABS                0000000
NO000000004000016000392IQ6276    20110823130000108897501571202426328100001500000000000001000001FARMABODEGA                   000010889PREDNISONA 5 MG 20 TABS                 LOSINON 5 MG 20 TABS                    0000000
NO000000004000016000392IQ6276    20110823130000108897501571200217338100007500000000000001000001FARMABODEGA                   000010889RANITIDINA 150 MG 20 TABS               IQFADINA 150 MG 20 TABS                 0000000
NO000000004000016000392IQ6276    20110823130000108897501571201184339100007500000000000001000001FARMABODEGA                   000010889RANITIDINA 300 MG 10 TABS               IQFADINA 300 MG 10 TABS                 0000000
NO000000004000016000392IQ6276    20110823130000108897501571201443363100006000000000000001000001FARMABODEGA                   000010889TRIMETOPRIMA /SULFAMETOXASOL 14 TABS    DERTRIN-F 14 TABS                       0000000
NO000000004000016000392IQ6276    20110823130000108897501571200057364100006000000000000001000001FARMABODEGA                   000010889TRIMETOPRIMA C/SULFAMETOXAZOL SUSP 120 MDERTRIN-S 120 ML                        0000000
NO000000004000016000392IQ6276    20110823130000108897501571200187366100006000000000000001000001FARMABODEGA                   000010889TRIMETOPRIMA/SULFAMETOXAZOL 80/400MG 20 DERTRIN 80/400 MG 20 TABS               0000000
NO000000004000016000392IQ6276    20110823130000108897501571201900379100001500000000000005000001FARMABODEGA                   000010889YODOPOVIDONA BUCOFARINGEO SOL 120 ML    LOSINE BUCO 120 ML                      0000000
NO000000004000016000392IQ6276    20110823130000108897501571201764383100006000000000000001000001FARMABODEGA                   000010889METFORMINA GLIBEN 500/5 MG 60 TABS      SIBET-C 500/5MG 60 TABS                 0000000
NO000000004000016000392IQ6276    20110823130000108897501571201931384100001500000000000005000001FARMABODEGA                   000010889YODOPOVIDONA SOL ANTISEPTICA SOL 120 ML LOSINE S SOL 120 ML                     0000000
NO000000004000016000392IQ6276    20110823130000108897501571202358431100003750000000000001000001FARMABODEGA                   000010889IBUPROFENO SUSP 120 ML                  CARONE SUSP 120 ML                      0000000
NO000000004000016000392IQ6276    20110823130000108897501571201856455100006000000000000001000001FARMABODEGA                   000010889METAMIZOL SODICO JBE 250 MG /5ML 120 ML INFATEM SUSP 120 ML                     0000000
NO000000004000016000392IQ6276    20110823130000108897501571202488518300003000000000000001000001FARMABODEGA                   000010889LEVONORGESTREL 0.75 MG C/2 TABS         LEVONORGESTREL 0.75 MG C/2 TABS         0000000
NO000000004000016000392IQ6276    20110823130000108897501571202273545100003000000000000001000001FARMABODEGA                   000010889SUBSALICILATO DE BISMUTO SUSP 120 ML    MUT-P SUSP 120 ML                       0000000
NO000000004000016000392IQ6276    20110823130000108897501571202396622100006000000000000001000001FARMABODEGA                   000010889DICLOXACILINA 500 MG 20 CAPS            DIMICIN 500 MG 20 CAPS                  0000000
NO000000005000016000499330       20110823130000108290787750020037068300009000000000080001000001FARMABODEGA                   000010829BETAMETASONA CLOTRIMAZOL GENTAMICINA CRAGENTRIDERM 30 GRS                       0000000
NO000000005000016000499330       20110823130000108290787750000121272100003750000000128001000001FARMABODEGA                   000010829METRONIDAZOL NISTATINA FLUOCI 2 GR 10 OVBONAGYN 2 GR 10 OVS                     0000000
NO000000006000016000391EV2048    20110823130000109417501251601105285100006000000000210101000001FARMABODEGA                   000010941MULTIVITAMINICO 30 CAPS                 ENERTON 30 CAPS                         0000000
NO000000006000016000391EV2048    20110823130000109417501251601563376100001500000000145601000001FARMABODEGA                   000010941VITAMINA E 500 MG 30 CAPS               VITAMINA E 500 MG 30 CAPS               0000000
NO000000007000016000391EV1978    20110823130000108887501251601013070100001120000000130801000001FARMABODEGA                   000010888BROMELINA FIBRA VEGETAL 99 COMPR        BROMELINA BROMEVIDA 99 COMPS            0000000
NO000000007000016000391EV1978    20110823130000108880750125160034188100003000000000140001000001FARMABODEGA                   000010888EUCALIPTO Y MIEL 240 ML                 BRONCO ENERGY 240 ML                    0000000
NO000000007000016000391EV1978    20110823130000108887501251601099284100006000000000545601000001FARMABODEGA                   000010888MULTIVITAMINICO 100 CAPS                ENERTON 100 CAPS                        0000000
NO000000007000016000391EV1978    20110823130000108887501251601037307100001500000000112001000001FARMABODEGA                   000010888NOPAL 600 MG 99 TABS                    NOPALVIDA 600 MG 99 TABS                0000000
NO00000000800001600018938578     20110823130000108980729513107883447200007500000000020005000001FARMABODEGA                   000010898VENDA ELASTICA 5 CM X 5 MTS             VENDA IDEAL 5 CM X 5 MTS                0000000
NO00000000800001600018938578     20110823130000108980729513107906448200007500000000034605000001FARMABODEGA                   000010898VENDA ELASTICA 10 CM X 5 MTS            VENDA IDEAL 10 CM X 5 MTS               0000000
NO00000000800001600018938578     20110823130000108980729513107913449200007500000000053205000001FARMABODEGA                   000010898VENDA ELASTICA 15 CM X 5 MTS            VENDA IDEAL 15 CM X 5 MTS               0000000
NO00000000800001600018938578     20110823130000108980729513107944450200007500000000098005000001FARMABODEGA                   000010898VENDA ELASTICA 30 CM X 5 MTS            VENDA IDEAL 30 CM X 5 MTS               0000000
NO00000000800001600018938578     20110823130000108980729513103922451200001500000000049705000001FARMABODEGA                   000010898GASA ESTERILIZADA 7.5X5CM 10 SBS        GASA IDEAL 7.5 X 5 CM                   0000000
NO00000000800001600018938578     20110823130000108980729513103939452200001500000000065005000001FARMABODEGA                   000010898GASA ESTERILIZADA 10X10CM               GASA IDEAL 10X10CM                      0000000
NO00000000900001600016891089     20110823130000109027501672600671205200003000000000070001000001FARMABODEGA                   000010902FLUOCINOLONA NEOMICINA CRA 30 GR AL 1%  FLUCCINOL - N 30 GRS 1%                 0000000
NO00000000900001600016891089     20110823130000109027501672600725223100001500000000085001000001FARMABODEGA                   000010902HIDROXIDO DE ALUMINIO HIDROXIDO MAGN DIMGELAR SUSP 300 ML                       0000000
NO00000001000001600016891090     20110823130000109027501672690504096200001500000000293101000001FARMABODEGA                   000010902CEFALEXINA GI 500 MG 20 CAPS            GI CEFALEXINA 500 MG 20 CAPS            0000000
NO00000001000001600016891090     20110823130000109027501672600732209300001500000000073701000001FARMABODEGA                   000010902FUMARATO FERROSO 200 MG 50 TABS         GESTAFERRON 200 MG 50 TABS              0000000
NO00000001000001600016891090     20110823130000109027501672600510226200006000000000070801000001FARMABODEGA                   000010902IBUPROFENO 400 MG 10 TABS               DIPOFEN 400 MG 10 TABS                  0000000
NO00000001000001600016891090     20110823130000109027501672690177228100001500000000101301000001FARMABODEGA                   000010902INDOMETACINA GI 25 MG 30 CAPS           GI INDOMETACINA 25 MG 30 CAPS           0000000
NO00000001000001600016891090     20110823130000109027501672601180231200001500000000472001000001FARMABODEGA                   000010902ITRACONAZOL  100 MG  15 CAPS            TRAX-100  100 MG   15 CAPS              0000000
NO00000001000001600016891090     20110823130000109027501672601326245300006000000000130401000001FARMABODEGA                   000010902KETOROLACO 10 MG 10 TABS                ROMETRAN-K 10 MG 10 TABS                0000000
NO00000001000001600016891090     20110823130000109027501672690078281300006000000000081401000001FARMABODEGA                   000010902MICONAZOL CRA 20 GRS                    MICONAZOL CRA 20 GRS                    0000000
NO00000001000001600016891090     20110823130000109027501672690085312300003000000000076701000001FARMABODEGA                   000010902GI OXIDO DE ZINC 30 GR                  OXIDO DE ZINC 30 GR GI                  0000000
NO000000011000016000558DF0059    20110823130000108967501010104021411200006000000000094501000001FARMABODEGA                   000010896SUERO ORAL MANZANA 500 ML               MAXHIDRAT MANZANA  500 ML (GREENMARK LAB0000000
NO000000011000016000558DF0059    20110823130000108967501010102027438200003000000000094501000001FARMABODEGA                   000010896SUERO ORAL COCO 500 ML                  MAXHIDRAT COCO 500 ML (GREENMARK LABS)  0000000
NO000000011000016000558DF0059    20110823130000108967501010103024583200003000000000094501000001FARMABODEGA                   000010896SUERO ORAL DURAZNO 500 ML               MAXHIDRAT DURAZNO  500 ML (GREENMARK LAB0000000
NO0000000120000160003772814      20110823130000109217509500005124758100001500000000190001000001FARMABODEGA                   000010921BARNIZ  HONGOS UñAS PIES Y MANOS 15 ML KASINOL HONGOS UñAS PIES Y MANOS 15 ML 0000000
NO0000000130000160003652422      20110823130000109178806011614074736100002250000000065001000001FARMABODEGA                   000010917BEBIDA ENERGIZANTE 100 ML               BACCHUS-D BEBIDA ENERGIZANTE 100 ML     0000000
NO000000014000016000257FB52172   20110823130000109127501277079735595100006000000000230001000001FARMABODEGA                   000010912SILDENAFIL 50 MG 1 TABS                 APODEFIL 50 MG 1 TABS                   0000000
NO000000014000016000257FB52172   20110823130000109127501277081226605200006000000000750001000001FARMABODEGA                   000010912SILDENAFIL 50 MG 4 TABS                 APODEFIL 50 MG 4 TABS                   0000000
NO000000015000016000257FB52171   20110823130000109127501277060023281200006000000000077001000001FARMABODEGA                   000010912MICONAZOL GI CREMA TUBO 20 G            GI MICONAZOL CREMA TUBO 20 G            0000000
NO000000015000016000257FB52171   20110823130000109127501277060061332200002250000000258001000001FARMABODEGA                   000010912PSYLLIUM PLANTAGO GI POLVO NATURAL 400 GGI PSYLLIUM 400 GRS NATURAL             0000000
NO000000015000016000257FB52171   20110823130000109127501277055708380300001500000000080001000001FARMABODEGA                   000010912CLORTALIDONA 50 MG 20 TABS              DIUPROL 50 MG 20 TABS                   0000000
NO000000015000016000257FB52171   20110823130000109127501277078325520100003000000000119001000001FARMABODEGA                   000010912SUERO ORAL C/4 SBS MANZANA 28.3 G C/U   ELECTROLITOS APO C/4 SBS MANZANA        0000000
NO0000000160000160007674037      20110823130000109757501349025080061100001500000000063001000001FARMABODEGA                   000010975BENCILPENICILINA GI COMB 1200 000 UI AMPGI BENCILPENICILINA 1200 000 COMB 3ML   0000000
NO0000000160000160007674037      20110823130000109757502007573875065200001500000000063001000001FARMABODEGA                   000010975BENZATINA BENCILPENICILINA 1200 000 UI AUNICIL L-A 1200 000 UI AMP (UNIPHARM)   0000000
NO0000000160000160007674037      20110823130000109757501587005141398200006000000000074705000001FARMABODEGA                   000010975PRESERVATIVO EXTRA SENSIBILIDAD 3 PZAS  ROMAN S SENSACION NATURAL  3 PZAS       0000000
NO0000000160000160007674037      20110823130000109757501834406189415100006000000000119905000001FARMABODEGA                   000010975ALCOHOL DESNATURALIZADO AL 70% 500 ML   ALCOHOL LUNA AL 70% 500 ML              0000000
NO0000000160000160007674037      20110823130000109757502253580924478100003000000000022005000001FARMABODEGA                   000010975BICARBONATO DE SODIO 100 GRS (LA FLOR)  BICARBONATO DE SODIO 100 GRS            0000000
NO0000000160000160007674037      20110823130000109757501827200046517100006000000000041805000001FARMABODEGA                   000010975ALGODON BOLSA 50 GRS (PROCUSA)          ALGODON ICEBERG 50 GRS                  0000000
NO0000000160000160007674037      20110823130000109750725742760028547100000500000000155401000001FARMABODEGA                   000010975CETIRIZINA 10 MG 10 TABS (SBL)          TRADAXIN 10 MG 10 TABS                  0000000
NO0000000160000160007674037      20110823130000109757501072629012551100003000000000036205000001FARMABODEGA                   000010975CEPILLO DENTAL ADULTO                   CEPILLO DENTAL CLINIC ADULTO            0000000
NO0000000160000160007674037      20110823130000109757501565562055564300003000000000023005000001FARMABODEGA                   000010975AGUA OXIGENADA 120 ML (QUIROMED)        AGUA OXIG 120 ML                        0000000
NO0000000160000160007674037      20110823130000109757503000504071565100003000000000060005000001FARMABODEGA                   000010975CLORURO DE BENZALCONIO BLANCO 60 ML (LABMERTHORAB BLANCO 60 ML                  0000000
NO0000000160000160007674037      20110823130000109757501361111501569100001500000000067502000001FARMABODEGA                   000010975TALCO DESODORANTE P/PIES 150 GRS        O-DOLEX TALCO DESODORANTE 150 G         0000000
NO0000000160000160007674037      20110823130000109757501005110563601100006000000000048305000001FARMABODEGA                   000010975CUBRE BOCAS DESECHABLES C/10 PIEZAS (L&CCUBRE BOCAS ESTRELLA C/10 PIEZAS        0000000
NO0000000160000160007674037      20110823130000109757702136646628682200001500000000033405000001FARMABODEGA                   000010975CURITAS CUREBAND C/10                   CURITAS CUREBAND C/10                   0000000
NO000000017000016000771A007066   20110823130000109517506022300119234100022500000000008405000001FARMABODEGA                   000010951JERINGA DE 3 ML 21GX32 MM               JERINGA 3 ML 21X32 SENSI MEDICAL        0000000
NO000000017000016000771A007066   20110823130000109517506022300119235100022500000000008405000001FARMABODEGA                   000010951JERINGA DE 3 ML 22GX32 MM               JERINGA 3 ML 22X32 SENSI MEDICAL        0000000
NO000000017000016000771A007066   20110823130000109517506022300188236200022500000000009805000001FARMABODEGA                   000010951JERINGA DE 5 ML 21GX32 MM               JERINGA 5 ML 21X32 SENSI MEDICAL        0000000
NO000000017000016000771A007066   20110823130000109517506022300201237200022500000000009805000001FARMABODEGA                   000010951JERINGA DE 5 ML 22GX32 MM               JERINGA 5 ML 22X32 SENSI MEDICAL        0000000
NO000000017000016000771A007066   20110823130000109517506022300263238200022500000000009505000001FARMABODEGA                   000010951JERINGA P/INSULINA 1 ML 29GX13 MM       JERINGA P/INSULINA 1 ML                 0000000
NO000000017000016000771A007066   20110823130000109517502238910111342300006000000000240001000001FARMABODEGA                   000010951SALBUTAMOL 100 MCG SPRAY 200 DOSIS      SACRUSYT 100 MCG SPRAY 200 DOSIS        0000000
NO000000017000016000771A007066   20110823130000109517506022300782677200007500000000008405000001FARMABODEGA                   000010951JERINGA PEDIAT DESECHABLE 3 ML 23X25MM CJERINGA PEDIATRICA 3 ML 23X25 C/100     0000000
NO000000017000016000771A007066   20110823130000109517506022308085725100006000000000010205000001FARMABODEGA                   000010951JERINGA P/INSULINA 1 ML 30X13 C/100     JERINGA P/INSULINA 1 ML 30X13 C/100     0000000
NO000000019000016000660A588      20110823130000109457501752513532158200003000000000110001000001FARMABODEGA                   000010945DICLOFENACO CRA 60 GR                   FENALGIN CRA 60 GR                      0000000
NO000000019000016000660A588      20110823130000109457501752512924205100003000000000070001000001FARMABODEGA                   000010945FLUOCINOLONA NEOMICINA CRA 30 GR AL 1%  CORTIFUNG-N CRA 30 GR AL 1%             0000000
NO000000019000016000660A588      20110823130000109457501752514614272200006000000000122101000001FARMABODEGA                   000010945METRONIDAZOL NISTATINA FLUOCI 2 GR 10 OVACENIL FLUOCI 2 GR 10 OVS               0000000
NO000000019000016000660A588      20110823130000109457501752514218391100001120000000130001000001FARMABODEGA                   000010945HIDROCORTISONA 1% CRA 30 GR             ICORSAN 1% CRA 30 GRS                   0000000
NO000000020000016000457AF4581    20110823130000109327506188286296675100001500000000500001000001FARMABODEGA                   000010932GABAPENTINA 300 MG 15 CAPS              CONVUNTIN 300 MG 15 CAPS                0000000
NO00000002100001600037830        20110823130000109227501590282270554100001500000000140001000001FARMABODEGA                   000010922HEDERA HELIX EXTRACTO DE BUGANBILIA     COFERIN JBE 120 ML (CMD)                0000000
NO000000022000016000498PDI135    20110823130000109340873360000023726100003600000000089201000001FARMABODEGA                   000010934PALETA C/MIEL DE ABEJA Y PROPOLEO C/12 PPROPOLETA C/12 PALETAS                  0000000
NO000000022000016000498PDI135    20110823130000109340873360000337727100003600000000061201000001FARMABODEGA                   000010934CARAMELO C/MIEL DE ABEJA Y PROPOLEO C/12PROPOLEO CARAMELO C/12                  0000000
NO000000022000016000498PDI135    20110823130000109340873360000733728100003080000000063001000001FARMABODEGA                   000010934GOMITAS ACIDITAS C/VIT C PROPOLEO Y MIELGOMIMIEL C VARIOS SABORES SOBRE C/60 GRS0000000
NO000000023000016000754L3832     20110823130000109597502211781684006200001120000000093501000001FARMABODEGA                   000010959ACICLOVIR 3 G CREMA 5 GR                KERASTIL 3 G CREMA 5GR                  0000000
NO000000023000016000754L3832     20110823130000109597502211780144022300001500000000063401000001FARMABODEGA                   000010959ALBENDAZOL SUSP ORAL 400MG ENV 20ML     RIVAZOL SUSP ORAL 400MG ENV 20ML        0000000
NO000000023000016000754L3832     20110823130000109597502211780168034100003000000000087001000001FARMABODEGA                   000010959AMBROXOL DEXTROMETORFANO JBE 120 ML ADULFARIBROX ADULTO 120 ML                  0000000
NO000000023000016000754L3832     20110823130000109597502211780182035100003000000000082001000001FARMABODEGA                   000010959AMBROXOL DEXTROMETORFANO JBE 120 ML INF FARIBROX INFANTIL 120 ML                0000000
NO000000023000016000754L3832     20110823130000109597502211781189071100001120000000095001000001FARMABODEGA                   000010959BROMHEXINA 160 MG SOL 100 ML ADTO       BROMICOFF ADTO 160 MG 100 ML            0000000
NO000000023000016000754L3832     20110823130000109597502211782704249300003000000000163201000001FARMABODEGA                   000010959LANSOPRAZOL 15 MG 14 CAPS               LAFIN 15 MG 14 CAPS                     0000000
NO000000023000016000754L3832     20110823130000109597502211782773250300003000000000217601000001FARMABODEGA                   000010959LANSOPRAZOL 30 MG 14 CAPS               LAFIN 30 MG 14 CAPS                     0000000
NO000000023000016000754L3832     20110823130000109597502211780915253300001120000000095001000001FARMABODEGA                   000010959LORATADINA 100 MG JBE 60 ML             DOTAGIL 100 MG JBE 60 ML                0000000
NO000000023000016000754L3832     20110823130000109597502211780373289300006000000000126501000001FARMABODEGA                   000010959NAPROXENO SODIC PARACETAMOL SUSP 100 ML PENSODIL SUSP 100 ML                    0000000
NO000000023000016000754L3832     20110823130000109597502211780830299200007500000000086701000001FARMABODEGA                   000010959NIMESULIDA 50 MG 5 ML SUSP 60 ML        FLAMOZIN 50 MG 60 ML                    0000000
NO000000023000016000754L3832     20110823130000109597502211783954304200002250000000268801000001FARMABODEGA                   000010959NITAZOXANIDA 500 MG 7 TABS              ROSANIL 500 MG 7 TABS                   0000000
NO000000023000016000754L3832     20110823130000109597502211781615350100001500000000104501000001FARMABODEGA                   000010959SULFADIAZINA DE PLATA 28 GRS            ARGEMOL 1.0 G 28 GRS                    0000000
NO000000023000016000754L3832     20110823130000109597502211780359431200003750000000101001000001FARMABODEGA                   000010959IBUPROFENO SUSP 120 ML                  AFLUSIL SUSP 120 ML                     0000000
NO000000023000016000754L3832     20110823130000109597502211780687455200006000000000140001000001FARMABODEGA                   000010959METAMIZOL SODICO 5 GRS SUSP 120 ML      NEOSEDAL JBE 120 ML                     0000000
NO000000023000016000754L3832     20110823130000109597502211781141497300003750000000129901000001FARMABODEGA                   000010959LORATADINA 100 MG AMBROXOL 600 MG 120 MLBISINCOF JBE 120 ML                     0000000
NO000000023000016000754L3832     20110823130000109597502211782483545200003000000000095001000001FARMABODEGA                   000010959SUBSALICILATO DE BISMUTO SUSP 120 ML    SIPAROX SUSP 120 ML                     0000000
NO000000023000016000754L3832     20110823130000109597502211784036612100001500000000370901000001FARMABODEGA                   000010959GLIMEPIRIDA 4 MG 30 TABS                ZUKEDIB 4 MG 30 TABS                    0000000
NO000000023000016000754L3832     20110823130000109597502211784005616100001120000000172901000001FARMABODEGA                   000010959FENITOINA 100 MG 50 TABS                FENIFFLER-T 100 MG 50 TABS              0000000
NO0000000240000160007091404      20110823130000109547502213041038040200001500000000192501000001FARMABODEGA                   000010954AMOXI/AC CLAVULANICO SUSP 250 MG/62.50 MCRYZMAT SUSP JR 250 MG                  0000000
NO0000000240000160007091404      20110823130000109547502213040352108100003000000000350001000001FARMABODEGA                   000010954CLARITROMICINA 500 MG 10 TABS           FHISFAL 500 MG 10 TABS                  0000000
NO0000000240000160007091404      20110823130000109547502213040017342200006000000000240001000001FARMABODEGA                   000010954SALBUTAMOL 100 MCG SPRAY 200 DOSIS      FARMAREST SPRAY 200 DOSIS               0000000
NO0000000240000160007091404      20110823130000109547502213040086558100003000000000280001000001FARMABODEGA                   000010954DEXAMETASONA LIDOCAINA TIAMINA SOL INY 3INNOBION SOL INY 3 X 3 AMPS             0000000
NO0000000240000160007091404      20110823130000109547502213040031578300003000000000260001000001FARMABODEGA                   000010954LORATADINA 100 MG BETAMETASONA 5 MG JBE FARMALOR NS SOL 60 ML                   0000000
NO0000000240000160007091404      20110823130000109547502213048488586100001500000000200001000001FARMABODEGA                   000010954LOSARTAN 50 MG C/30 TABS                LOZYDEL 50 MG 30 TABS                   0000000
NO0000000240000160007091404      20110823130000109547502213041090613100001500000000440001000001FARMABODEGA                   000010954LEVOFLOXACINO 500 MG 7 TABS             PROSXAFLO 500 MG 7 TABS                 0000000
NO000000025000016000116C6127     20110823130000109007501044205404569200001500000000063802000001FARMABODEGA                   000010900TALCO DESODORANTE P/PIES 150 GRS        TALCO OLORMAX P/PIES 150 GRS            0000000
NO0000000260000160008141909      20110823130000109837501644707339120100001500000000036001000001FARMABODEGA                   000010983CLORFENAMINA GI 4 MG 20 TABS            GI CLORFEMANINA 4 MG 20 TABS            0000000
NO0000000270000160008141911      20110823130000109837502213048181392100003000000000220405000001FARMABODEGA                   000010983PRUEBA DE EMBARAZO CASSETE              PRE-MOM PRUEBA DE EMBARAZO              0000000
NO000000028000016000428840       20110823130000109297503008344372248100003000000000190001000001FARMABODEGA                   000010929LACTOBACILOS ACIDOFILOS CAPS 40         LACTOBACILOS ACIDOFILOS CAPS 40         0000000
NO000000028000016000428840       20110823130000109297503008344563428100001500000000270001000001FARMABODEGA                   000010929VITAMINAS PRENATALES 30 TABS            PRO Q-VIT 9 MESES 30 CAP                0000000
NO000000028000016000428840       20110823130000109297503008344303744100002250000000135001000001FARMABODEGA                   000010929PARACETAMOL300MG/LORATADINA2.0MG/DEXT10MLADEXGEL 300MG/2.0MG/10.0MG 12 CAPS     0000000
NO000000029000016000849A1134     20110823130000109867502215781383586200001500000000180001000001FARMABODEGA                   000010986LOSARTAN GI 50 MG 30 COMPS              GI LOSARTAN 50 MG 30 COMPS              0000000
NO0000000300000160007141177      20110823130000109567501547509016460100003000000000247501000001FARMABODEGA                   000010956INDOMETACINA DEXAMETASONA 30 CAPS       INDARZONA 30 CAPS                       0000000
NO0000000300000160007141177      20110823130000109567501547522145466100003000000000080001000001FARMABODEGA                   000010956CLORURO CETILPIRIDINIO 2.5 MG BENZOC 10 TROCILETAS-B 12 TABS                    0000000
NO000000031000016000766A20765    20110823130000109887501128113120234200022000000000008405000001FARMABODEGA                   000010988JERINGA DE 3 ML 21GX32 MM C/100         JERINGA 3 ML 21GX32 DL C/100            0000000
NO000000031000016000766A20765    20110823130000109887501128113137235200022000000000008405000001FARMABODEGA                   000010988JERINGA DE 3 ML 22GX32 MM C/100         JERINGA 3 ML 22X32 DL C/100             0000000
NO000000031000016000766A20765    20110823130000109887501128113229236100022000000000009705000001FARMABODEGA                   000010988JERINGA DE 5 ML 21GX32 MM C/100         JERINGA 5 ML 21X32 DL C/100             0000000
NO000000031000016000766A20765    20110823130000109887501128113236237100022000000000009705000001FARMABODEGA                   000010988JERINGA DE 5 ML 22GX32 MM /100          JERINGA 5 ML 22X32 DL /100              0000000
NO000000031000016000766A20765    20110823130000109887501128113014238100022000000000009505000001FARMABODEGA                   000010988JERINGA P/INSULINA 1 ML 29GX13 MM /200  JERINGA P/INSULINA 1 ML C/200           0000000
NO000000031000016000766A20765    20110823130000109887501128113144677100007000000000008405000001FARMABODEGA                   000010988JERINGA PEDIAT DESECHABLE 23G X 25MM 3MLJERINGA ESTERIL PEDIAT 23G X 25 MM 3 ML 0000000
NO000000031000016000766A20765    20110823130000109887501128119405724100006000000000011705000001FARMABODEGA                   000010988JERINGA P/INSULINA 0.5 ML 31X8 MM C/100 JERINGA P/INSULINA 0.5 ML 31X8 MM C/100 0000000
NO000000031000016000766A20765    20110823130000109887501128119412725200006000000000011405000001FARMABODEGA                   000010988JERINGA P/INSULINA 1 ML 30X13 MM C/100  JERINGA P/INSULINA 1 ML 30X13 MM C/100  0000000
NO00000003200001600082147302     20110823130000109857503002771297134100001500000000119001000001FARMABODEGA                   000010985COMPLEMENTO ALIMENT C/FIBRA 236 ML FRESAVITAPROMIN C/FIBRA FRESA                0000000
NO00000003200001600082147302     20110823130000109857503002771235139100001500000000119001000001FARMABODEGA                   000010985COMPLEMENTO ALIMENT S/FIBRA 236 ML FRESAVITAPROMIN S/F FRESA                    0000000
NO000000033000016000915550       20110823130000109817503012924102385200001500000000085301000001FARMABODEGA                   000010981ALCANFOR MENTOL EUCALIPTO UNG 40 GRS    D'PADERM UNG 40 GR                      0000000
NO000000034000016000554241       20110823130000109437501055403820658100001500000000186001000001FARMABODEGA                   000010943OMEGA 3-6-9 30 CAPS GELATINA BLANDA     OMEGA 3-6-9 30 CAPS (MEXBOTANICO)       0000000
NO000000035000016000517108       20110823130000109367501380788036490100006000000000025805000001FARMABODEGA                   000010936TELA ADHESIVA 1.25 X 1 MT C/24          TELA ADHESIVA 1.25 X 1 MT               0000000
NO000000036000016000759B71       20110823130000109767501471887495096100001500000000230001000001FARMABODEGA                   000010976CEFALEXINA GI 500 MG 20 CAPS            GI CEFALEXINA 500 MG 20 CAPS            0000000
NO000000036000016000759B71       20110823130000109767501723501254124100001500000000100001000001FARMABODEGA                   000010976CLORURO DE SODIO Y GLICERINA 30 ML      NASSAL 30 ML                            0000000
NO000000036000016000759B71       20110823130000109767501908256016170200001120000000065001000001FARMABODEGA                   000010976DIFENIDOL 25 MG 30 TABS                 LAUDEFEN 25 MG 30 TABS                  0000000
NO000000036000016000759B71       20110823130000109767501188800695201300001500000000285001000001FARMABODEGA                   000010976FLOROGLUCINOL/TRIMETILFLOROGLU 80/80 MG PANCLASA 80 MG 30 CAPS ( ATLANTIS )     0000000
NO000000036000016000759B71       20110823130000109767501471820904297200002250000000090001000001FARMABODEGA                   000010976NIFEDIPINO 10 MG 20 CAPS ( TECNOFARMA ) CORDILAT 10MG 20 CAPS                   0000000
NO000000036000016000759B71       20110823130000109767501471887839536100001500000000419901000001FARMABODEGA                   000010976VALPROATO DE MAGNESIO 200 MG 40 TABS    TRANKITEC 200 MG 40 TABS (TECNOFARMA)   0000000
NO000000036000016000759B71       20110823130000109767501300409010570100001500000000460001000001FARMABODEGA                   000010976CEFUROXIMA 250 MG SUSP 50 ML (SIEGFRIED)CEFURACET 250 MG SUSP                   0000000
NO000000036000016000759B71       20110823130000109767501300409034571100001500000000760001000001FARMABODEGA                   000010976CEFUROXIMA 500 MG 10 TABS (SIEGFRIED)   CEFURACET 500 MG TABS                   0000000
NO000000036000016000759B71       20110823130000109767502216792197602100002250000000230001000001FARMABODEGA                   000010976METOCARBAMOL 215 MG MELOXICAM 15 MG 10 TRETOFLAM-F 10 TABS                      0000000
NO000000036000016000759B71       20110823130000109767502009741487632100006000000000220001000001FARMABODEGA                   000010976CLONIXINATO DE LISINA 250 MG BUTIL 10 MGDOLTRIX 250 MG C/10 COMPS (MAVER)       0000000
NO000000036000016000759B71       20110823130000109767502215220134636100001500000000290001000001FARMABODEGA                   000010976LISADOS BACTERIANOS ORAL 5 AMPS 3 ML    BIOCORD C/5 AMPS 3 ML                   0000000
NO000000036000016000759B71       20110823130000109767502227870648644100001500000000265001000001FARMABODEGA                   000010976NORFLOXACINO 400MG FENAZOPIRIDINA 200MG NORFLEN 400/200 MG 8 TABS ( RAMM )      0000000
NO000000036000016000759B71       20110823130000109767502227871584645100001500000000380001000001FARMABODEGA                   000010976KETOROLACO 10 MG TRAMADOL 25 MG 10 CAPS VOYDOL-C 10/25MG 10 CAPS ( RAMM )       0000000
NO000000037000016000866AL1042    20110824130000109797502223111073302100001500000000180001000001FARMABODEGA                   000010979NITAZOXANIDA 100 MG SUSP 60 ML          MITAFAR SUSP 60 ML                      0000000
NO000000037000016000866AL1042    20110824130000109797502223111028304300002250000000242701000001FARMABODEGA                   000010979NITAZOXANIDA 500 MG 6 TABS              MITAFAR 500 MG 6 TABS                   0000000
NO000000037000016000866AL1042    20110824130000109797502223112193640100001500000000204601000001FARMABODEGA                   000010979GUAIFENESINA Y OXOLAMINA JBE 140 ML     GUAXOQUIM JBE 140 ML                    0000000
NO0000000380000160005920421      20110824130000109440000000000000415200006000000000119900000001FARMABODEGA                   000010944                                                                                0000000
NO0000000390000160009634534      20110825130000109917503181041464188300003000000000150001000001FARMABODEGA                   000010991EUCALIPTO Y MIEL 240 ML                 NATU-BRON 240 ML                        0000000
NO0000000390000160009634534      20110825130000109917503181041570486100003000000000225001000001FARMABODEGA                   000010991GLUCOSAMINA 500 MG 30 TABS              CONDROFLEX 500 MG 30 TABS               0000000
NO0000000390000160009634534      20110825130000109917503181041105658200001500000000200001000001FARMABODEGA                   000010991OMEGA 3 30 CAPS GELATINA BLANDA         OMEGA BALTIC 30 CAPS                    0000000
NO0000000400000160009634535      20110825130000109917503181041938655100001500000000208001000001FARMABODEGA                   000010991VITAMINAS PARA DIABETICOS C/30 CAPS     PRODIA-VIT 30 CAPS                      0000000
NO0000000400000160009634535      20110825130000109917503181041150790100002250000000150001000001FARMABODEGA                   000010991COMPLEJO B 500 MG 30 TABS               B-COMPLEX C/ 30 TABS                    0000000
NO0000000400000160009634535      20110825130000109917503181041853794100001500000000400001000001FARMABODEGA                   000010991L-CARNITINA GARCINIA CAMBOGIA Y CROMO 60RESTAKIL C/ 60 TABS MAST                0000000
NO0000000400000160009634535      20110825130000109917503181041723796100001500000000250001000001FARMABODEGA                   000010991VALERIANA, TILA Y PASIFLORA C/ 30 CAPS  PASSITIL C/ 30 CAPS                     0000000
NO000000041000016000968B4789     20110825130000110000785118753597006300001120000000099201000001FARMABODEGA                   000011000ACICLOVIR CREMA 5 GR                    LESACLOR CREMA 5 GR                     0000000
NO000000041000016000968B4789     20110825130000110000785118752873126100003000000000120001000001FARMABODEGA                   000011000CLOTRIMAZOL CRA  2% 20 GRS              EURODERM CRA VAG 2% 20 GRS              0000000
NO000000041000016000968B4789     20110825130000110000785118752866158300003000000000110001000001FARMABODEGA                   000011000DICLOFENACO GEL 60 GR                   FENAGEL GEL 60 GR                       0000000
NO000000041000016000968B4789     20110825130000110000785120753998244300001500000000090001000001FARMABODEGA                   000011000KETOROLACO TROMETAMINA 30 MG 3 AMPS 1 MLMAVIDOL 30 MG 3 AMPS 1 ML               0000000
NO000000041000016000968B4789     20110825130000110000785120753974245200006000000000090001000001FARMABODEGA                   000011000KETOROLACO 10MG 10 TABS                 MAVIDOL 10MG 10 TABS                    0000000
NO000000041000016000968B4789     20110825130000110000785120754087261200001500000000120001000001FARMABODEGA                   000011000MELOXICAM 15 MG 10 TABS                 MAVICAM 15 MG 10 TABS                   0000000
NO000000041000016000968B4789     20110825130000110000785120753912288300006000000000093301000001FARMABODEGA                   000011000NAPROXENO SODICO 275 MG PARACETA 300 MG TAXENAN COMP 10 TABS                    0000000
NO000000041000016000968B4789     20110825130000110000785118752422292300005250000000151701000001FARMABODEGA                   000011000NAPROXENO SODICO 550 MG 12 TABS         INFLANOX 550 MG 12 TABS                 0000000
NO000000041000016000968B4789     20110825130000110000785120754148382200006000000000140001000001FARMABODEGA                   000011000METFORMINA GLIBEN 500 MG /2.5 MG 30 TABSMAVIGLIN 500 MG / 2.5 MG 30 GRAGS       0000000
NO000000041000016000968B4789     20110825130000110000785120754131383200006000000000256701000001FARMABODEGA                   000011000METFORMINA GLIBEN 500/5 MG 60 TABS      MAVIGLIN 500/5 MG 60 GRAGEAS            0000000
NO000000041000016000968B4789     20110825130000110000785118752361413100001500000000095001000001FARMABODEGA                   000011000AMBROXOL-SALBUTAMOL 0.150 G/0.40 G 120 MFULTAC SOL 120 ML                       0000000
NO000000041000016000968B4789     20110825130000110000785118752347430100001500000000530001000001FARMABODEGA                   000011000CLARITROMICINA 250 MG SUSP 60 ML        KROBICIN SUSP 250 MG                    0000000
NO000000041000016000968B4789     20110825130000110000785120754261432300006000000000140001000001FARMABODEGA                   000011000DICLOFENACO COMPLEJO B 50 MG /1 MG 30 GRORTOCOL FORTE 30 GRAG                   0000000
NO000000041000016000968B4789     20110825130000110000785120754483555200001500000000250001000001FARMABODEGA                   000011000NAPROXENO 250 MG CARISOPRODOL 200 MG 30 CARIDOXEN 250/200 MG 30 CAPS            0000000
NO000000041000016000968B4789     20110825130000110000785120754650613200001500000000340001000001FARMABODEGA                   000011000LEVOFLOXACINO 500 MG 7 TABS             SIBOFIX 500 MG 7 TABS                   0000000
NO000000041000016000968B4789     20110825130000110000785118752590663300001500000000160001000001FARMABODEGA                   000011000BROMURO DE PINAVERIO 100 MG 14 TABS     DISTENTAL 100 MG 14 TABS                0000000
NO000000041000016000968B4789     20110825130000110000785118752637670100003000000000095301000001FARMABODEGA                   000011000SUBSALICILATO DE BISMUTO 262 MG C/24 TABITAMOL 262 MG C/24 TABS MAST            0000000
NO000000042000016000392IQ7054    20110825130000108897501571201047037100001500000000063301000001FARMABODEGA                   000010889AMIKACINA 100 MG 1 AMP                  AMIYEC 100 MG X 1 AMP                   0000000
NO000000042000016000392IQ7054    20110825130000108897501571201573252100003000000000030001000001FARMABODEGA                   000010889LOPERAMIDA 2 MG 12 TABS                 NODIAMEX 2 MG 12 TABS                   0000000
NO000000042000016000392IQ7054    20110825130000108897501571200934288100006000000000056001000001FARMABODEGA                   000010889NAPROXENO SODICO 275 MG PARACETA 300 MG ARSENAL COMP 10 TABS                    0000000
NO000000042000016000392IQ7054    20110825130000108897501571201771382100006000000000120001000001FARMABODEGA                   000010889METFORMINA GLIBEN 500 MG /2.5 MG 30 TABSSIBET-C 500/2.5 MG 30 TABS              0000000
NO000000043000016000414REM-030   20110825130000109247501075713718017100001120000000100001000001FARMABODEGA                   000010924ACIDO MEFENAMICO 500 MG 20 TABS         NAMIFEN 500 MG 20 TABS                  0000000
NO000000043000016000414REM-030   20110825130000109240000075006471022200001500000000024001000001FARMABODEGA                   000010924ALBENDAZOL 20 MG SUSP 20 ML             VERMISEN 20 MG SUSP 20 ML               0000000
NO000000043000016000414REM-030   20110825130000109247501075715927023100001500000000040001000001FARMABODEGA                   000010924ALBENDAZOL 200 MG 6 TABS                VERMISEN 200 MG 6 TABS                  0000000
NO000000043000016000414REM-030   20110825130000109247501075715910024100001500000000016001000001FARMABODEGA                   000010924ALBENDAZOL 200 MG 2 TABS                VERMISEN 200MG 2 TABS                   0000000
NO000000043000016000414REM-030   20110825130000109247501075713459036300003000000000050001000001FARMABODEGA                   000010924AMBROXOL 0.300 G SOL 120 ML             MUCIBRON 0.300 G SOL 120 ML             0000000
NO000000043000016000414REM-030   20110825130000109247501075718096060100001500000000270001000001FARMABODEGA                   000010924AZITROMICINA 500 MG 3 TABS              MARZIVAG 500 MG 3 TABS (NOVAG)          0000000
NO000000043000016000414REM-030   20110825130000109247501075718546069100001120000000110001000001FARMABODEGA                   000010924BEZAFIBRATO 200MG C/30 TAB              NIBEZVAG 200MG C/30 TAB                 0000000
NO000000043000016000414REM-030   20110825130000109247501075710724087200003000000000070001000001FARMABODEGA                   000010924CARBAMAZEPINA 200 MG 20 TABS            CARPIN 200 MG 20 TABS                   0000000
NO000000043000016000414REM-030   20110825130000109247501075711332180100003000000000060001000001FARMABODEGA                   000010924ENALAPRIL 10 MG 30 TABS                 ENOVAL 10 MG 30 TABS                    0000000
NO000000044000016000414REM-031   20110825130000109247501075717518206100001120000000140001000001FARMABODEGA                   000010924FLUOXETINA 20 MG 20 TABS                F-EXINA 20 MG 20 TABS                   0000000
NO000000044000016000414REM-031   20110825130000109247501075714739221200006000000000060001000001FARMABODEGA                   000010924GLIBENCLAMIDA 5 MG 50 TABS              REGLUSAN 5 MG 50 TABS                   0000000
NO000000044000016000414REM-031   20110825130000109247501075711011229100001500000000045001000001FARMABODEGA                   000010924ISOSORBIDA 10 MG 20 TABS (NOVAG)        DEBISOR 10 MG 20 TABS                   0000000
NO000000044000016000414REM-031   20110825130000109247501075717150242200003000000000055005000001FARMABODEGA                   000010924KETOCONAZOL 200 MG 10 TABS              LIZOVAG 200 MG 10 TABS                  0000000
NO000000044000016000414REM-031   20110825130000109247501075717020266200003000000000080001000001FARMABODEGA                   000010924METFORMINA 850 MG 30 TABS               GLUNOVAG 850 MG 30 TABS                 0000000
NO000000044000016000414REM-031   20110825130000109247501075710786268200005250000000038001000001FARMABODEGA                   000010924METOCLOPRAMIDA 10 MG 20 TSBS            CIRULAN 10MG 20 TABS                    0000000
NO000000044000016000414REM-031   20110825130000109247501075714173269300003000000000050001000001FARMABODEGA                   000010924METOPROLOL 100 MG 20 TABS               PRONTOL 100 MG 20 TABS                  0000000
NO000000044000016000414REM-031   20110825130000109247501075713176278100001500000000060001000001FARMABODEGA                   000010924METRONIDAZOL 500 MG 30 TABS             LAMBLIT 500 MG 30 TABS                  0000000
NO000000045000016000414REM-032   20110825130000109247501075713800293200003000000000090001000001FARMABODEGA                   000010924NAPROXENO 250 MG 30 TABS                NOVAXEN 250 MG 30 TABS                  0000000
NO000000045000016000414REM-032   20110825130000109247501075717075294100001500000000280001000001FARMABODEGA                   000010924NAPROXENO 500 MG 45 TABS                NOVAXEN 500 MG 45 TABS                  0000000
NO000000045000016000414REM-032   20110825130000109247501075717914295100001000000000120001000001FARMABODEGA                   000010924NEOMICINA CAOLIN PECTINA SUSP 75 ML     NINEKA SUSP 75 ML                       0000000
NO000000045000016000414REM-032   20110825130000109247501075716801327300002250000000150001000001FARMABODEGA                   000010924PRAVASTATINA 10 MG 30 TABS              NOVINA 10 MG 30 TABS                    0000000
NO000000045000016000414REM-032   20110825130000109247501075713770332100002100000000260001000001FARMABODEGA                   000010924PSYLLIUM PLANTAGO POLVO NATURAL 400 GRS NOVAGON 400GRS POLVO                    0000000
NO000000046000016000834A2310     20110826130000109787501055403608655200001500000000276001000001FARMABODEGA                   000010978VITAMINAS PARA DIABETICOS C/30 CAPS     DIAVITTAL 30 CAPS                       0000000
NO0000000470000160008141913      20110826130000109837502007578252100300006000000000150001000001FARMABODEGA                   000010983CEFTRIAXONA GI 500 MG IM SOL INY 2 ML   AXTAR 500 MG IM SOL INY2 ML             0000000
NO0000000470000160008141913      20110826130000109837502007573035159200003750000000240001000001FARMABODEGA                   000010983DICLOFENACO SODI/ COMPJO B 3X3 AMPS (UNIUNI-DOX INY 3X3 5 MG 5000               0000000
NO0000000470000160008141913      20110826130000109837502007572168302200001500000000200001000001FARMABODEGA                   000010983NITAZOXANIDA 100 MG SUSP 60 ML          KIDONAX SUSP 60 ML                      0000000
NO0000000470000160008141913      20110826130000109830000750200757304100002250000000240001000001FARMABODEGA                   000010983NITAZOXANIDA 500 MG 6 TABS (UNIPHAR)    KIDONAX 500 MG 6 TABS                   0000000
NO0000000470000160008141913      20110826130000109837501644703652397100003750000000165001000001FARMABODEGA                   000010983LIDOCAINA HIDROCORTISONA ALUM OXIDO ZINCLITISET 20 G UNGUENTO                   0000000
NO0000000480000160007272544      20110826130000109737501472600139091200001500000000100001000001FARMABODEGA                   000010973CASTA#O DE INDIAS 30 TROSCISCOS         CASTA#O DE INDIAS                       0000000
NO0000000480000160007272544      20110826130000109737501472600123188200003000000000120001000001FARMABODEGA                   000010973EUCALIPTO Y MIEL 240 ML                 MIAJAVIT JBE 240 ML                     0000000
NO0000000480000160007272544      20110826130000109737501472600031554200001500000000120001000001FARMABODEGA                   000010973HEDERA HELIX 0.7 G  LIMON TOLU JBE 120 MMOCTOS JBE 120 ML                       0000000
NO000000049000016000476AF197741  20110826130000108917501048613601452100001500000000070005000001FARMABODEGA                   000010891GASA ESTERILIZADA 10X10CM 10 SBS        GASA ESTERIL 10X10CM                    0000000
NO0000000500000160007091455      20110830130000109547503006300011424100001500000000174005000001FARMABODEGA                   000010954PRUEBA DE EMBARAZO PLUMA QUIK-CHECK     PRUEBA EMBARAZO QUIK-CHECK              0000000
NO0000000510000160008141916      20110830130000109837501644703775518200003000000000245001000001FARMABODEGA                   000010983LEVONORGESTREL 0.75 MG 2 TABS           SILOGIN 0.75 MG 2 TABS                  0000000
NO0000000510000160008141916      20110830130000109837501644707506635200001500000000185001000001FARMABODEGA                   000010983LEVONORGESTREL 0.15MG ETINILESTRADIOL 0.GI LEVONORGESTREL 0.15 MG ETINILESTRADIO0000000
NO000000052000016000970A-2150    20110830130000110017501836000040075100001120000000179201000001FARMABODEGA                   000011001BUTILHIOSCINA 10 MG METAM SOD 500 MG 20 ANADIL 500 MG 20 TABS                   0000000
NO000000052000016000970A-2150    20110830130000110017501836000101153100001500000000101601000001FARMABODEGA                   000011001DEXTROMETORFANO GUAIFENESINA JBE 120 ML BECTOSAN JBE 120 ML                     0000000
NO000000052000016000970A-2150    20110830130000110017501836000224209200001500000000086801000001FARMABODEGA                   000011001FUMARATO FERROSO 200MG 50 TABS          FERNADIN 200MG 50 TABS                  0000000
NO000000052000016000970A-2150    20110830130000110017501836000200210200001500000000089601000001FARMABODEGA                   000011001FURAZOLIDONA CAOLIN PECTINA 118 ML      ESTIBAL SUSP 118 ML                     0000000
NO000000052000016000970A-2150    20110830130000110017501836000521242300003000000000143401000001FARMABODEGA                   000011001KETOCONAZOL 200 MG 10 TABS              TINIAZOL 200 MG 10 TABS                 0000000
NO000000052000016000970A-2150    20110830130000110017501836000835289200006000000000146701000001FARMABODEGA                   000011001NAPROXENO SODICO PARACETAMOL SUSP 100 MLBIFARDOL SUSP 100 ML                    0000000
NO000000052000016000970A-2150    20110830130000110017501836000828350200001500000000117601000001FARMABODEGA                   000011001SULFADIAZINA DE PLATA 1 GR CRA 28 GR    ARGENTAL 28 GR CRA                      0000000
NO000000052000016000970A-2150    20110830130000110017501836003218361100001120000000151201000001FARMABODEGA                   000011001TRIMEBUTINA SUSP ADTO 100 MG 100 ML     CINEPRAC SUSP ADTO 100 MG 100 ML        0000000
NO000000052000016000970A-2150    20110830130000110017501836003188497100003750000000112001000001FARMABODEGA                   000011001LORATADINA 100 MG AMBROXOL 600 MG 120 MLALERFIN EX JBE 120 ML                   0000000
NO000000052000016000970A-2150    20110830130000110017501836003393556100003000000000142801000001FARMABODEGA                   000011001IBUPROFENO 200 MG PARACETAMOL 325 MG 20 DUALGOS 200 MG 20 TABS                  0000000
NO000000053000016000970A-2151    20110830130000110017501836000750043200001120000000140001000001FARMABODEGA                   000011001AMOXICILINA 250MG SUSP 60ML             LIMOXIL 250MG/5ML                       0000000
NO000000053000016000970A-2151    20110830130000110017501836000705045200001120000000145601000001FARMABODEGA                   000011001AMOXICILINA 500 MG 12 CAPS              LIMOXIN 500 MG 12 CAPS                  0000000
NO000000053000016000970A-2151    20110830130000110017501836000934062300001500000000049301000001FARMABODEGA                   000011001BENCILP/PROCAINICA Y CRISTALINICA 400 00PROSODINA 400 000 UI AMP                0000000
NO000000053000016000970A-2151    20110830130000110017501836000972068200009000000000109201000001FARMABODEGA                   000011001BETAMETASONA CLOTRIMAZOL GENTAMICINA CRAPRUBAGEN CREMA 25 GRS                   0000000
NO000000053000016000970A-2151    20110830130000110017501836001054095200001120000000186501000001FARMABODEGA                   000011001CEFALEXINA 250 MG SUSP 100 ML           PAFERXIN 250 MG SUSP 100 ML             0000000
NO000000053000016000970A-2151    20110830130000110017501836001023096300001500000000270001000001FARMABODEGA                   000011001CEFALEXINA 500 MG 20 TABS               PAFERXIN 500 MG 20 CAPS                 0000000
NO000000053000016000970A-2151    20110830130000110017501836002037622300006000000000257001000001FARMABODEGA                   000011001DICLOXACILINA 500MG 20 CAPS             ANTIBEN 500MG 20 CAPS                   0000000
NO000000054000016000449A012638   20110830130000109317501258204163039300001500000000350501000001FARMABODEGA                   000010931AMOX/AC CLAVULANICO 500 MG 10 TABS      CLAVUSER 500 MG 10 TABS                 0000000
NO000000054000016000449A012638   20110830130000109317501258204484040300001500000000308901000001FARMABODEGA                   000010931AMOXI/AC CLAVULANICO SUSP 250 MG /62.50 CLAVUSER SUSP JR 250 MG                 0000000
NO000000054000016000449A012638   20110830130000109317501258205382060200001500000000402801000001FARMABODEGA                   000010931AZITROMICINA 500 MG 3 TABS              AZTROGECIN 500 MG 3 TABS                0000000
NO000000054000016000449A012638   20110830130000109317501258205092160100001500000000150301000001FARMABODEGA                   000010931DICLOFENACO SODI/ CMPJO B 50 MG 30 GRAG FORTICAL 50 MG 30 GRAG                  0000000
NO000000054000016000449A012638   20110830130000109317501258200196170300001120000000075701000001FARMABODEGA                   000010931DIFENIDOL 25 MG 30 TABS                 SERRATOL 25 MG 30 TABS                  0000000
NO000000054000016000449A012638   20110830130000109317501258200394269200003000000000083501000001FARMABODEGA                   000010931METOPROLOL 100 MG 20 TABS               SEMETROL 100 MG  20 TABS                0000000
NO000000054000016000449A012638   20110830130000109317501258204590323200001500000000272601000001FARMABODEGA                   000010931PENTOXIFILINA 400 MG 30 TABS            PENSIRAL 400 MG 30 TABS                 0000000
NO000000054000016000449A012638   20110830130000109317501258203395331100002250000000080001000001FARMABODEGA                   000010931PROPANOLOL 40 MG 30 TABS                SINTASER 40 MG 30 TABS                  0000000
NO000000054000016000449A012638   20110830130000109317501258203586418100001500000000134001000001FARMABODEGA                   000010931CLONIXINATO DE LISINA 250 MG 10 TABS    LONIXER 250 MG 10 TABS                  0000000
NO000000054000016000449A012638   20110830130000109317501258205016435200006000000000361701000001FARMABODEGA                   000010931AMOXI /AC CLAVULANICO 875/125 MG 10 TABSCLAVUSER 12H 875 MG TABS                0000000
NO000000054000016000449A012638   20110830130000109317501258204750436200006000000000294901000001FARMABODEGA                   000010931AMOXI /AC CLAVULANICO 400 MG /57 MG /5 MCLAVUSER JUNIOR 12H SUSP 400 MG         0000000
NO000000054000016000449A012638   20110830130000109317501258204767437200003000000000178001000001FARMABODEGA                   000010931AMOXI/AC CLAVULANICO 200 MG /28.5 MG SUSCLAVUSER PEDIATRICO 12H SUSP            0000000
NO000000054000016000449A012638   20110830130000109317501258205733506200003750000000371001000001FARMABODEGA                   000010931AZITROMICINA 200 MG/5 ML 15 ML          AZTROGECIN SUSP 200 MG/5 ML             0000000
NO000000054000016000449A012638   20110830130000109317501258205863547300001500000000233201000001FARMABODEGA                   000010931CETIRIZINA 10 MG 10 TABS                VISERTRAL 10 MG 10 TABS                 0000000
NO000000054000016000449A012638   20110830130000109317501258206563578200003000000000320601000001FARMABODEGA                   000010931LORATADINA 100 MG BETAMETASONA 5 MG SOL TAMEX 100/5 MG SOL 60 ML                0000000
NO000000054000016000449A012638   20110830130000109317501258203104613300001500000000492901000001FARMABODEGA                   000010931LEVOFLOXACINO 500 MG 7 TABS             FLEVOX 500 MG 7 TABS                    0000000
NO000000054000016000449A012638   20110830130000109317501258204002662100003000000000240001000001FARMABODEGA                   000010931LORATADINA/BETAMETASONA 5.0 MG 0.25 MG CTAMEX 5.0 MG 0.25 MG C/10 TABS          0000000
NO000000054000016000449A012638   20110830130000109317501258203753663200001500000000241901000001FARMABODEGA                   000010931BROMURO DE PINAVERIO 100 MG C/14 TABS   DIVER 100 MG C/14 TABS                  0000000
NO000000055000016000546735       20110831130000109420670079001392227100001500000000240001000001FARMABODEGA                   000010942IBUPROFENO 600 MG 45 TABS               INPAINED 600 MG 45 TABS                 0000000
NO000000055000016000546735       20110831130000109420670079002863515200006000000000252001000001FARMABODEGA                   000010942TRAMADOL 50 MG 10 CAPS                  TRAMED 50 MG 10 CAPS                    0000000
NO000000056000016000757573       20110831130000110097501539711625347100001500000000162401000001FARMABODEGA                   000011009SENOSIDOS A Y B CIRUELA 50 COMPRIMIDOS  SENOLAX 50 COMPRIMIDOS                  0000000
NO000000056000016000757573       20110831130000110097502009740497437100000540000000160001000001FARMABODEGA                   000011009AMOXI/AC CLAVULANICO 200 MG /28.5 MG SUSCLAMOXIN PEDIATRICO 12 H SUSP(MAVER)    0000000
NO000000056000016000757573       20110831130000110097502009741296570200001500000000510001000001FARMABODEGA                   000011009CEFUROXIMA 250 MG SUSP 50 ML (MAVER)    CEFAGEN 250 MG SUSP 50 ML               0000000
NO000000056000016000757573       20110831130000110090750221304100576200004000000000170001000001FARMABODEGA                   000011009BETAMETASONA 2.0 MG LIDOCAINA 30 MG 1 AMSCARPETT 2.0 MG 1 AMP 2 ML (GIRARCAPS)  0000000
NO000000056000016000757573       20110831130000110097502240450247608100004880000000120001000001FARMABODEGA                   000011009AMANTADINA 50MG CLORF 3MG PARACET 300MG ROSEL CAPS C/24 (WERMAR)                0000000
NO000000057000016000823F4294     20110901130000109877502239732033392200003000000000200005000001FARMABODEGA                   000010987PRUEBA DE EMBARAZO CASSETE              PREBIOS PRUEBA DE EMBARAZO              0000000
NO000000058000016000655A013351   20110902130000109920780083141226003100001120000000186701000001FARMABODEGA                   000010992ACETOFENIDO DIHIDROXIPROGESTERONA 1 AMP PERLUDIL SOL INY 1 AMP                  0000000
NO000000058000016000655A013351   20110902130000109927502009740992039200001500000000262001000001FARMABODEGA                   000010992AMOX/AC CLAVULANICO 500 MG 10 TABS (MAVECLAMOXIN 500 MG 10 TABS                 0000000
NO000000058000016000655A013351   20110902130000109920780083140922051100001120000000338001000001FARMABODEGA                   000010992AMPICILINA DIPIRONA CLORFE 500 MG ADUL 3AMPIGRIN ADULTO                         0000000
NO000000058000016000655A013351   20110902130000109927502003380989121100003000000000148801000001FARMABODEGA                   000010992CLORFENAMINA /PARACETAMOL FENILE 30 ML GCOLDAID GTS 30 ML PED (RAYERE)          0000000
NO000000058000016000655A013351   20110902130000109920780083145583587300001500000000470001000001FARMABODEGA                   000010992SERTRALINA 50 MG 14 TABS                ALUPREX 50 MG 14 TABS                   0000000
NO000000058000016000655A013351   20110902130000109920780083144302650100001490000000130001000001FARMABODEGA                   000010992OXIMETAZOLINA SOL NASAL ADULTO 50 MG 20 COLLIFRIN NAZAL ADULTO 50 MG SOL 20 ML  0000000
NO000000059000016000499357       20110905130000110847501752514614272200006000000000128001000001FARMABODEGA                   000011084METRONIDAZOL NISTATINA FLUOCI 2 GR 10 OVACENIL FLUOCI 2 GR 10 OVS               0000000
NO0000000600000160008141919      20110905130000109837502007578269101200003000000000170001000001FARMABODEGA                   000010983CEFTRIAXONA 1 GR IM INY ( PHARMANOVA )  AXTAR 1 GR IM INY                       0000000
NO0000000610000160009634584      20110905130000110817503181041570486100003000000000225001000001FARMABODEGA                   000011081GLUCOSAMINA 500 MG 30 TABS              CONDROFLEX 500 MG 30 TABS               0000000
NO000000062000016000498PDI161    20110906130000111670873360000023726100003600000000089201000001FARMABODEGA                   000011167PALETA C/MIEL DE ABEJA Y PROPOLEO C/12 PPROPOLETA C/12 PALETAS                  0000000
NO000000062000016000498PDI161    20110906130000111670873360000337727100003600000000061201000001FARMABODEGA                   000011167CARAMELO C/MIEL DE ABEJA Y PROPOLEO C/12PROPOLEO CARAMELO C/12                  0000000
NO000000062000016000498PDI161    20110906130000111670873360000733728100003080000000063001000001FARMABODEGA                   000011167GOMITAS ACIDITAS C/VIT C PROPOLEO Y MIELGOMIMIEL C VARIOS SABORES SOBRE C/60 GRS0000000
NO000000063000016000449A012769   20110906130000110787501258203395331100002250000000080001000001FARMABODEGA                   000011078PROPANOLOL 40 MG 30 TABS                SINTASER 40 MG 30 TABS                  0000000
NO000000063000016000449A012769   20110906130000110787501258203586418100001500000000134001000001FARMABODEGA                   000011078CLONIXINATO DE LISINA 250 MG 10 TABS    LONIXER 250 MG 10 TABS                  0000000
NO000000063000016000449A012769   20110906130000110787501258206259617100001500000000132501000001FARMABODEGA                   000011078QUINFAMIDA 300 MG 1 TABS                SHERPAMIDA 300 MG 1 TABS                0000000
NO0000000640000160007674059      20110906130000111367503010569008517300006000000000041805000001FARMABODEGA                   000011136ALGODON BOLSA 50 GRS (ALGODONES ALBY)   ALGODON ALBY 50 GRS                     0000000
NO0000000640000160007674059      20110906130000111360725742760028547100001000000000155401000001FARMABODEGA                   000011136CETIRIZINA 10 MG 10 TABS (SBL)          TRADAXIN 10 MG 10 TABS                  0000000
NO000000065000016000970A-2241    20110907130000112067501836002600106200005990000000235201000001FARMABODEGA                   000011206CIPROFLOXACINO 500 MG 12 TABS           LIFERXINA 500 MG 12 TABS                0000000
NO00000006600001600016891441     20110908130000111587501672690221252200003000000000076701000001FARMABODEGA                   000011158LOPERAMIDA 2 MG 12 TABS                 LOPERAMIDA 2 MG 12 TABS                 0000000
NO000000067000016000257FB52744   20110908130000111787501277084036637200001350000000500001000001FARMABODEGA                   000011178CITALOPRAM 20 MG 14 TABS                APOPRAN 20 MG 14 TABS                   0000000
NO000000068000016000771A007567   20110908130000112347501128113120234200022000000000008405000001FARMABODEGA                   000011234JERINGA DE 3 ML 21GX32 MM C/100         JERINGA 3 ML 21GX32 DL C/100            0000000
NO000000068000016000771A007567   20110908130000112347501128113137235200022000000000007205000001FARMABODEGA                   000011234JERINGA DE 3 ML 22GX32 MM C/100         JERINGA 3 ML 22X32 DL C/100             0000000
NO000000068000016000771A007567   20110908130000112347501128113229236100022000000000009805000001FARMABODEGA                   000011234JERINGA DE 5 ML 21GX32 MM C/100         JERINGA 5 ML 21X32 DL C/100             0000000
NO000000068000016000771A007567   20110908130000112347501128113236237100022000000000009805000001FARMABODEGA                   000011234JERINGA DE 5 ML 22GX32 MM /100          JERINGA 5 ML 22X32 DL /100              0000000
NO000000068000016000771A007567   20110908130000112347501128113014238100044000000000009505000001FARMABODEGA                   000011234JERINGA P/INSULINA 1 ML 29GX13 MM /200  JERINGA P/INSULINA 1 ML C/200           0000000
NO000000068000016000771A007567   20110908130000112347501128113144677100007000000000008405000001FARMABODEGA                   000011234JERINGA PEDIAT DESECHABLE 23G X 25MM 3MLJERINGA ESTERIL PEDIAT 23G X 25 MM 3 ML 0000000
NO000000068000016000771A007567   20110908130000112347501128119412725200007000000000010205000001FARMABODEGA                   000011234JERINGA P/INSULINA 1 ML 30X13 MM C/100  JERINGA P/INSULINA 1 ML 30X13 MM C/100  0000000
NO0000000690000160007674068      20110909130000111367506272400300503100002250000000059501000001FARMABODEGA                   000011136MULTIAPLICADORES DE ALGODON C/100       MULTIAPLICADORES ESTRELLA C/100         0000000
NO000000070000016000759B93       20110909130000112577501471821901323300000840000000240001000001FARMABODEGA                   000011257PENTOXIFILINA 400 MG 30 TABS (TECNOFARMATECXIFIL 400 MG 30 TABS                 0000000
NO000000071000016000757582       20110909130000111858901296007099570300001500000000510001000001FARMABODEGA                   000011185CEFUROXIMA 250 MG SUSP 50 ML (RAMBAXI)  MAGNASPOR 250 MG SUSP 50 ML             0000000
NO000000071000016000757582       20110909130000111857501298213675571200001500000000900001000001FARMABODEGA                   000011185CEFUROXIMA 500 MG 10 TABS (RAMBAXI)     CEFUROXIMA GI 500 MG 10 TABS            0000000
NO000000072000016000757583       20110909130000111857502240450247608100001120000000120001000001FARMABODEGA                   000011185AMANTADINA 50MG CLORF 3MG PARACET 300MG ROSEL CAPS C/24 (WERMAR)                0000000
NO000000073000016000757587       20110909130000110097501298213675571200001000000000900001000001FARMABODEGA                   000011009CEFUROXIMA 500 MG 10 TABS (RAMBAXI)     CEFUROXIMA GI 500 MG 10 TABS            0000000
NO000000074000016000757590       20110909130000111857501842900709227300001500000000220001000001FARMABODEGA                   000011185IBUPROFENO 600 MG 45 TABS (GENETICA)    ADOPREN 600 MG 45 TABS                  0000000
NO000000075000016000973A7725     20110909130000111871306881054071224100002250000000264001000001FARMABODEGA                   000011187HIDROXOCOBALAMINA 50 000 UI 5 AMPS 2 ML CINOBLAR-B12 50 000 5 AMPS (GIRARCAPS)  0000000
NO000000076000016000973A7814     20110909130000111877503002378069398100006000000000077205000001FARMABODEGA                   000011187PRESERVATIVO ULTRA SENSIBLE CARTERA C/3 CLUB 11 ULTRA SENSIBLE C/3 (PRESERVAN)  0000000
NO000000077000016000757585       20110909130000110097501842900709227300001500000000220001000001FARMABODEGA                   000011009IBUPROFENO 600 MG 45 TABS (GENETICA)    ADOPREN 600 MG 45 TABS                  0000000
NO000000077000016000757585       20110909130000110097503003738473261100001500000000140001000001FARMABODEGA                   000011009MELOXICAM 15 MG 15 TABS ( WERMAR )      ANPRE 15 MG 15 TABS                     0000000
NO000000077000016000757585       20110909130000110097501471887297553100003000000000345201000001FARMABODEGA                   000011009CEFACLOR 250 MG SUSP 75 ML              TECNOCLOR-S 250 MG SUSP 75 ML (TECNOFARM0000000
NO000000077000016000757585       20110909130000110097501298213675571200000500000000900001000001FARMABODEGA                   000011009CEFUROXIMA 500 MG 10 TABS (RAMBAXI)     CEFUROXIMA GI 500 MG 10 TABS            0000000
NO000000077000016000757585       20110909130000110097502240450247608100001120000000120001000001FARMABODEGA                   000011009AMANTADINA 50MG CLORF 3MG PARACET 300MG ROSEL CAPS C/24 (WERMAR)                0000000
NO000000077000016000757585       20110909130000110091306881056105610100002750000000224301000001FARMABODEGA                   000011009TRAMADOL 40MG PARACET 300MG VIT B1 B12 2B-TRACET-EX 20 TABS (GIRARCAMPS)        0000000
NO000000077000016000757585       20110909130000110097202240450209639300001500000000060001000001FARMABODEGA                   000011009AMLODIPINO 5 MG 10 TABS (WERMAR)        AVISTAR 5 MG 10 TABS                    0000000
NO000000077000016000757585       20110909130000110097502240450148675200001500000000430001000001FARMABODEGA                   000011009GABAPENTINA 300 MG 16 CAPS              WERMY 300 MG 16 CAPS (WERMAR)           0000000
NO0000000780000160004481378      20110913130000109307501620360015111100001120000000152001000001FARMABODEGA                   000010930CLINDAMICINA 600 MG SOL INY 4 ML        CLENDAZAF 600 MG 4 ML INY               0000022
NO000000079000016000968B5002     20110913130000112070785120754254104300001500000000200001000001FARMABODEGA                   000011207CINARIZINA 75 MG 60 TABS                VENOXIL 75 MG 60 TABS                   0000000
NO000000079000016000968B5002     20110913130000112070085118752551197300001500000000080001000001FARMABODEGA                   000011207FENAZOPIRIDINA 100 MG 20 TABS           UREZOL 100 MG 20 TABS                   0000000
NO0000000800000160006862186      20110913130000112677501563370690027200001500000000104601000001FARMABODEGA                   000011267ALOPURINOL 300 MG 20 TABS               BIONOL 300 MG 20 TABS                   0000000
NO0000000800000160006862186      20110913130000112677501563310528197200001500000000085001000001FARMABODEGA                   000011267FENAZOPIRIDINA 100 MG 20 TABS           BIOFERINA 100 MG 20 TABS                0000000
NO0000000800000160006862186      20110913130000112670000075016784228300001500000000072001000001FARMABODEGA                   000011267INDOMETACINA 25 MG 30 CAPS              BIOMETACIN 25 MG 30 CAPS                0000000
NO0000000800000160006862186      20110913130000112670000075016791229200001500000000028001000001FARMABODEGA                   000011267ISOSORBIDA 10 MG 20 TABS (BIORESEARCH)  BIORDYN 10 MG 20 TABS                   0000000
NO0000000800000160006862186      20110913130000112677501563331028278200001500000000050001000001FARMABODEGA                   000011267METRONIDAZOL 500 MG 30 TABS             BIOTAZOL 500 MG 30 TABS                 0000000
NO0000000800000160006862186      20110913130000112677501563381771350300001500000000060001000001FARMABODEGA                   000011267SULFADIAZINA DE PLATA 30 GRS            BIOARGIROL-C 30 GRS                     0000000
NO0000000800000160006862186      20110913130000112677501563381276620200001480000000103301000001FARMABODEGA                   000011267ESPIRONOLACTONA 25 MG 20 TABS           BIOLACTONA 25 MG 20 TABS                0000000
NO000000081000016000837W3111     20110913130000112117503001007199039100001500000000254701000001FARMABODEGA                   000011211AMOX/AC CLAVULANICO 500 MG 10 TABS      VALCLAN 500 MG 10 TABS                  0000000
NO000000081000016000837W3111     20110913130000112117503001007175040100001500000000192601000001FARMABODEGA                   000011211AMOXI/AC CLAVULANICO SUSP 250 MG /62.50MVALCLAN SUSP JR 250 MG                  0000000
NO000000081000016000837W3111     20110913130000112117501258205016435200006000000000329501000001FARMABODEGA                   000011211AMOXI /AC CLAVULANICO 875/125 MG 10 TABSCLAVUSER 12H 875 MG TABS                0000000
NO000000081000016000837W3111     20110913130000112117503001007182436100006000000000192601000001FARMABODEGA                   000011211AMOXI /AC CLAVULANICO 400 MG /57 MG /5 MVALCLAN JR 12H 400 MG /57 MG 5 ML       0000000
NO000000081000016000837W3111     20110913130000112117503001007168621300006000000000125001000001FARMABODEGA                   000011211AMPICILINA 500 MG 20 CAPS               MEXAPIN 500 MG 20 CAPS                  0000000
NO000000082000016000960B6284     20110913130000112107501573900337036200003000000000065001000001FARMABODEGA                   000011210AMBROXOL 0.300 G SOL 120 ML             CLOXAN SOL 120 ML                       0000000
NO000000082000016000960B6284     20110913130000112107501573900412069300001120000000115001000001FARMABODEGA                   000011210BEZAFIBRATO 200 MG 30 TABS              BIFAREN 200 MG 30 TABS                  0000000
NO000000082000016000960B6284     20110913130000112107501573903260071300001120000000095001000001FARMABODEGA                   000011210BROMHEXINA 160 MG SOL 100 ML AD         BROMHEXINA 160 MG SOL 100 ML AD         0000000
NO000000082000016000960B6284     20110913130000112107501573900535077300001500000000038001000001FARMABODEGA                   000011210BUTILHIOSCINA 10 MG 10 GRAGEAS          BIOMESINA 10 MG 10 GRAEAS               0000000
NO000000082000016000960B6284     20110913130000112107501573900078085200003000000000070001000001FARMABODEGA                   000011210CAPTOPRIL 25 MG 30 TABS                 BIOXIL 25 MG 30 TABS                    0000000
NO000000082000016000960B6284     20110913130000112107501573900306105300006000000000091701000001FARMABODEGA                   000011210CIPROFLOXACINO 250 MG 8 TABS            Z-XIN  250 MG 8 TABS                    0000000
NO000000082000016000960B6284     20110913130000112107501573900580108200003000000000303301000001FARMABODEGA                   000011210CLARITROMICINA 500 MG 10 TABS           DOYCUR 500 MG 10 TABS                   0000000
NO000000082000016000960B6284     20110913130000112107501573900153120200001500000000047701000001FARMABODEGA                   000011210CLORFENIRAMINA 4 MG 20 TABS             DOCSI 4 MG 20 TABS                      0000000
NO000000082000016000960B6284     20110913130000112107501573900221180300003000000000072001000001FARMABODEGA                   000011210ENALAPRIL 10 MG 30 TABS                 VEXOTIL 10 MG 30 TABS                   0000000
NO000000082000016000960B6284     20110913130000112107501573900375211200001500000000044801000001FARMABODEGA                   000011210FUROSEMIDA 40 MG 20 TABS                DIURMESSEL 40 MG 20 TABS                0000000
NO000000082000016000960B6284     20110913130000112107501573900511254300001500000000150001000001FARMABODEGA                   000011210LORATADINA 10 MG 20 TABS                GRIMERAL 10 MG 20 TABS                  0000000
NO000000082000016000960B6284     20110913130000112107501573901082265200006000000000037301000001FARMABODEGA                   000011210METAMIZOL SODICO 500MG 10 TABS          MESSELFENIL 500MG 10 TABS               0000000
NO000000082000016000960B6284     20110913130000112107501573900542278300001500000000066301000001FARMABODEGA                   000011210METRONIDAZOL 500 MG 30 TABS             MESSELDAZOL 500 MG 30 TABS              0000000
NO000000082000016000960B6284     20110913130000112107501573900177288200006000000000079001000001FARMABODEGA                   000011210NAPROXENO SODICO 275 MG PARACETA 300 MG BRAX COMP 10 TABS                       0000000
NO000000082000016000960B6284     20110913130000112107501573900047292200005250000000123001000001FARMABODEGA                   000011210NAPROXENO SODICO 550 MG 12 TABS         BIXEN 550 MG 12 TABS                    0000000
NO000000082000016000960B6284     20110913130000112107501573900467293300003000000000095001000001FARMABODEGA                   000011210NAPROXENO 250 MG 30 TABS                MESSELXEN 250 MG 30 TABS                0000000
NO000000082000016000960B6284     20110913130000112107501573900443320200007500000000021801000001FARMABODEGA                   000011210PARACETAMOL 500 MG 10 TABS              QUITADOL 500 MG 10 TABS                 0000000
NO000000082000016000960B6284     20110913130000112107501573900498326200001500000000058101000001FARMABODEGA                   000011210PIROXICAM 20 MG 20 TABS                 RIPOX 20 MG 20 TABS                     0000000
NO000000082000016000960B6284     20110913130000112107501573901587338300007500000000045001000001FARMABODEGA                   000011210RANITIDINA 150 MG 20 GRAGEAS            ULGASTRIN 150 MG 20 GRAGEAS             0000000
NO000000082000016000960B6284     20110913130000112107501573900023339300007500000000045001000001FARMABODEGA                   000011210RANITIDINA 300 MG 10 TABS               ULGASTRIN 300 MG 10 TABS                0000000
NO000000082000016000960B6284     20110913130000112107501573900313366300006000000000055001000001FARMABODEGA                   000011210TRIMETOPRIMA/SULFAMETOXAZOL 80/400MG 20 BISULTRIM 80/400MG 20 TABS              0000000
NO0000000830000160008141930      20110914130000112567501258200080529300001500000000165001000001FARMABODEGA                   000011256BAÑO COLOIDE POLVO 90 GRS              SOYALOID POLVO 90 GRS                   0000000
NO000000084000016000392IQ8254    20110914130000112337501571201924298100006000000000040001000001FARMABODEGA                   000011233NIMESULIDA 100 MG 10 TABS               NILDEN 100 MG 10 TABS                   0000000
NO000000085000016000414REM039    20110914130000112097501075713862085300003000000000050001000001FARMABODEGA                   000011209CAPTOPRIL 25 MG 30 TABS                 NOVAPRES  25 MG 30 TABS                 0000000
NO000000085000016000414REM039    20110914130000112097501075717020266200003000000000080001000001FARMABODEGA                   000011209METFORMINA 850 MG 30 TABS               GLUNOVAG 850 MG 30 TABS                 0000000
NO000000085000016000414REM039    20110914130000112090000750006440312200003000000000035001000001FARMABODEGA                   000011209OXIDO DE ZINC CRA 30 GRS                ROSATIL PASTA TARRO C/30 GRS            0000000
NO000000086000016000841A260      20110914130000112587502216793224362200001120000000350001000001FARMABODEGA                   000011258TRIMEBUTINA 200 MG 40 TABS              CRISMOTIL 200 MG 40 TABS                0000000
NO000000086000016000841A260      20110914130000112587502216790421363200006000000000120001000001FARMABODEGA                   000011258TRIMETOPRIMA/SULFAMETOXASOL 160/800MG 14TS-BAC 160/800 MG 14 TABS               0000000
NO000000086000016000841A260      20110914130000112587502216791510413300001500000000092001000001FARMABODEGA                   000011258AMBROXOL-SALBUTAMOL 0.150 G/O.40 G 120 MULAX-C JBE 120 ML                       0000000
NO000000086000016000841A260      20110914130000112587502216790865432100006000000000107501000001FARMABODEGA                   000011258DICLOFENACO/COMPLEJO B 50 MG/1 MG 30 GRADICLOFENACO/COMPLEJO B GI 30 GRAGEAS    0000000
NO000000086000016000841A260      20110914130000112587502216793279586300001500000000250001000001FARMABODEGA                   000011258LOSARTAN POTASICO 50 MG 30 GRAGE        VIOPEXA 50 MG 30 GRAGE                  0000000
NO000000086000016000841A260      20110914130000112587502216793941620100001500000000103301000001FARMABODEGA                   000011258ESPIRONOLACTONA 25 MG C/20 TABS         NOLASQUE 25 MG C/20 TABS                0000000
NO000000086000016000841A260      20110914130000112587502216793231639200001500000000100001000001FARMABODEGA                   000011258AMLODIPINO GI 5 MG 10 TABS              GI AMLODIPINO 5 MG 10 TABS              0000000
NO000000086000016000841A260      20110914130000112587502216793057663100001500000000170001000001FARMABODEGA                   000011258BROMURO DE PINAVERIO 100 MG 14 TABS     LUTROPEN 100 MG 14 TABS                 0000000
NO000000086000016000841A260      20110914130000112587502216793699675300001500000000500001000001FARMABODEGA                   000011258GABAPENTINA 300 MG 15 CAPS              NYEPZIL     300 MG 15 CAPS              0000000
NO000000086000016000841A260      20110914130000112587502216793675740100001500000000250001000001FARMABODEGA                   000011258AMLODIPINO GI 5 MG 30 TABS              GI AMLODIPINO 5 MG 30 TABS              0000000
NO000000087000016000841A257      20110914130000110037502216791541069200001120000000110001000001FARMABODEGA                   000011003BEZAFIBRATO 200 MG 30 TABS              FAZEBIT 200 MG 30 TABS                  0000000
NO000000087000016000841A257      20110914130000110037502216792111104100001500000000180001000001FARMABODEGA                   000011003CINARIZINA 75 MG 60 TABS                DILPER-INA 75 MG 60 TABS                0000000
NO000000087000016000841A257      20110914130000110037502216790025105200005850000000070001000001FARMABODEGA                   000011003CIPROFLOXACINO 250 MG 8 TABS            PROFLUXOL 250 MG 8 TABS                 0000000
NO000000087000016000841A257      20110914130000110037502216790308106300005610000000180001000001FARMABODEGA                   000011003CIPROFLOXACINO 500 MG 12 TABS           PROFLUXOL 500 MG 12 TABS                0000000
NO000000087000016000841A257      20110914130000110037502216790315110200002670000000310001000001FARMABODEGA                   000011003CLINDAMICINA 300 MG 16 CAPS             ULMICY 300 MG 16 CAPS                   0000000
NO000000087000016000841A257      20110914130000110037502216791299180200002650000000070001000001FARMABODEGA                   000011003ENALAPRIL 10 MG 30 TABS                 ADYTENN 10MG 30 TABS                    0000000
NO000000087000016000841A257      20110914130000110037502216791329253100001120000000080001000001FARMABODEGA                   000011003LORATADINA 100 MG 60 ML                 HL-YSTA 100 MG 60 ML                    0000000
NO000000087000016000841A257      20110914130000110037502216790179298200005600000000080001000001FARMABODEGA                   000011003NIMESULIDA 100 MG 10 TABS               UL-FLAM 100 MG 10 TABS                  0000000
NO000000087000016000841A257      20110914130000110037502216792555309200005730000000130001000001FARMABODEGA                   000011003OMEPRAZOL 20 MG  14 TABS                OMEPRAZOL 20 MG  14 TABS                0000000
NO000000087000016000841A257      20110914130000110037502216792975317200001270000000035001000001FARMABODEGA                   000011003PARACETAMOL GI 100 MG 15 ML GTS         GI PARACETAMOL 100 MG 15 ML GTS         0000000
NO000000087000016000841A257      20110914130000110037502216790032320300007020000000050001000001FARMABODEGA                   000011003PARACETAMOL 500 MG 10 TABS              ULPAFIE 500 MG 10 TABS                  0000000
NO000000087000016000841A257      20110914130000110037502216796058326300001120000000050001000001FARMABODEGA                   000011003PIROXICAM 20 MG 20 TABS                 OXI-REUL 20 MG 20 TABS                  0000000
NO000000087000016000841A257      20110914130000110037502216791794327200002250000000250001000001FARMABODEGA                   000011003PRAVASTATINA 10 MG 30 TABS              TRYDANIL-H 10 MG 30 TABS                0000000
NO000000087000016000841A257      20110914130000110037502216793224362200001120000000350001000001FARMABODEGA                   000011003TRIMEBUTINA 200 MG 40 TABS              CRISMOTIL 200 MG 40 TABS                0000000
NO000000087000016000841A257      20110914130000110037502216790421363200006000000000120001000001FARMABODEGA                   000011003TRIMETOPRIMA/SULFAMETOXASOL 160/800MG 14TS-BAC 160/800 MG 14 TABS               0000000
NO000000087000016000841A257      20110914130000110037502216791510413300001500000000092001000001FARMABODEGA                   000011003AMBROXOL-SALBUTAMOL 0.150 G/O.40 G 120 MULAX-C JBE 120 ML                       0000000
NO000000087000016000841A257      20110914130000110037502216790865432100006000000000107501000001FARMABODEGA                   000011003DICLOFENACO/COMPLEJO B 50 MG/1 MG 30 GRADICLOFENACO/COMPLEJO B GI 30 GRAGEAS    0000000
NO000000087000016000841A257      20110914130000110037502216793279586300001250000000250001000001FARMABODEGA                   000011003LOSARTAN POTASICO 50 MG 30 GRAGE        VIOPEXA 50 MG 30 GRAGE                  0000000
NO000000087000016000841A257      20110914130000110037502216793941620100001500000000103301000001FARMABODEGA                   000011003ESPIRONOLACTONA 25 MG C/20 TABS         NOLASQUE 25 MG C/20 TABS                0000000
NO000000087000016000841A257      20110914130000110037502216793231639200001500000000100001000001FARMABODEGA                   000011003AMLODIPINO GI 5 MG 10 TABS              GI AMLODIPINO 5 MG 10 TABS              0000000
NO000000087000016000841A257      20110914130000110037502216793057663100001500000000170001000001FARMABODEGA                   000011003BROMURO DE PINAVERIO 100 MG 14 TABS     LUTROPEN 100 MG 14 TABS                 0000000
NO000000087000016000841A257      20110914130000110037502216793699675300001500000000500001000001FARMABODEGA                   000011003GABAPENTINA 300 MG 15 CAPS              NYEPZIL     300 MG 15 CAPS              0000000
NO000000087000016000841A257      20110914130000110037502216793675740100001500000000250001000001FARMABODEGA                   000011003AMLODIPINO GI 5 MG 30 TABS              GI AMLODIPINO 5 MG 30 TABS              0000000
NO000000088000016000973A7880     20110921130000111877502213048167518100003000000000245001000001FARMABODEGA                   000011187LEVONORGESTREL 0.75 MG C/2 TABS         ALTERNA 0.75 MG C/2 TABS                0000000
NO000000089000016000757595       20110921130000111857502009740497437100002460000000160001000001FARMABODEGA                   000011185AMOXI/AC CLAVULANICO 200 MG /28.5 MG SUSCLAMOXIN PEDIATRICO 12 H SUSP(MAVER)    0000000
NO000000089000016000757595       20110921130000111857501471887297553100003000000000345201000001FARMABODEGA                   000011185CEFACLOR 250 MG SUSP 75 ML              TECNOCLOR-S 250 MG SUSP 75 ML (TECNOFARM0000000
NO000000090000016000098MEX3970   20110921130000111240000000000000415300006000000000120000000001FARMABODEGA                   000011124                                                                                0000000
NO000000090000016000098MEX3970   20110921130000111247501192601547601300006000000000045505000001FARMABODEGA                   000011124CUBRE BOCAS DESECHABLES C/10 PIEZAS (DALCUBRE BOCAS C/10 PIEZAS                 0000000
NO0000000910000160007674088      20110921130000113967502223550575067200001500000000105901000001FARMABODEGA                   000011396BENZONATATO GI 100 MG 20 CAPS           GI BENZONATATO 100 MG 20 CAPS           0000000
NO0000000910000160007674088      20110921130000113960656599040493203100006000000000107701000001FARMABODEGA                   000011396FLUCONAZOL 150 MG 1 CAPS                ALFUMET 150 MG 1 CAPS                   0000000
NO0000000910000160007674088      20110921130000113967501571200682226100006000000000071801000001FARMABODEGA                   000011396IBUPROFENO 400 MG 10 TABS               CARONE 400MG 10 TABS                    0000000
NO0000000910000160007674088      20110921130000113967502223551190297100002250000000080801000001FARMABODEGA                   000011396NIFEDIPINO GI 10 MG 20 CAPS             GI NIFEDIPINO 10 MG 20 CAPS             0000000
NO0000000910000160007674088      20110921130000113967502216790179298200006000000000084401000001FARMABODEGA                   000011396NIMESULIDA 100 MG 10 TABS               UL-FLAM 100 MG 10 TABS                  0000000
NO0000000910000160007674088      20110921130000113967502223552098309300006000000000107701000001FARMABODEGA                   000011396OMEPRAZOL 20 MG 14 CAPS                 ZOLUFEN 20 MG 14 CAPS                   0000000
NO0000000910000160007674088      20110921130000113967502223552074310300006000000000052101000001FARMABODEGA                   000011396OMEPRAZOL 20 MG 7 CAPS                  ZOLUFEN 20 MG  7 CAPS                   0000000
NO0000000910000160007674088      20110921130000113967502223550391332300002250000000371001000001FARMABODEGA                   000011396PSYLLIUM PLANTAGO 400 MG POLVO NATURAL  NAXAR-P 400 MG POLVO NATURAL            0000000
NO0000000910000160007674088      20110921130000113967202240450209639300001500000000301501000001FARMABODEGA                   000011396AMLODIPINO 5 MG 10 TABS (WERMAR)        AVISTAR 5 MG 10 TABS                    0000000
